:100C2600C0F9A4B0999282F880908883C6A1868E76
:100C36004079243019120278001008034621060E66
:100C460053540D0A00504152410D0A0000000000A5
:100C5600000000000000000000000000000000008E
:030C66000000008B
:100C6900011A00011B00020A0A48011732021C007E
:100C79001E020D00230208001E02140023021200A6
:100C8900000119000111000118FF0116FF020F00F0
:0F0C990000C185C186C180C102C103C104C10170
:100D2500900C2BE493FDE4FF120ED47FF47E0112A8
:100D35000D4E7DFF7F01120ED47FF47E01120D4E04
:090D45007F02120ED47FF47E013E
:0B0D4E00EF1FAC0670011E4C70F62277
:100F0400758921758DFA758BFAD28E759850E4F532
:060F14008ED2ACD2AF2228
:030023000205B61D
:1005B600C0E0C0F0C083C082C0D075D000C000C00B
:0D05C60001C002C003C004C005C006C0078C
:1005D30078217C007D007BFF7A0C79527E007F0CB2
:1005E3001202BB782D7C007D007BFF7A0C795E7E46
:1005F300007F0B1202BB20980302070EC298859955
:100603000CE51A900C4693B50C04051A8003751A71
:1006130000E51A640460030206B0F51A7F24120091
:1006230019E51775F00A842430FF120019E51775D0
:10063300F00A84E5F02430FF1200197F2C12001910
:10064300AE0AAF0B7C007D6412030C12000EAE0ADF
:10065300AF0B7C007D6412030C7C007D0A12030C3B
:10066300ED2430FF1200197F2E120019AE0AAF0BD2
:100673007C007D6412030C7E007F0ACFCDCFCECCED
:10068300CE120012AE0AAF0B7C007D6412030C7E07
:10069300007F0ACFCDCFCECCCE12030CED2430FF9A
:1006A3001200197F0D1200197F0A120019E51B9021
:1006B3000C4693B50C04051B8003751B00E51B64F6
:1006C300067048F51B7F24120019AE0DAF0E120001
:1006D3000EAE0DAF0E7C007D0A12030CED2430FF2D
:1006E3001200197F2C120019AE1CAF1D12000EAEA2
:1006F3001CAF1D7C007D0A12030CED2430FF120099
:0B070300197F0D1200197F0A12001967
:10070E00D007D006D005D004D003D002D001D0003F
:0B071E00D0D0D082D083D0F0D0E032E9
:0B000E007C007D0A12030CEF2430FF81
:080019008F993099FDC2992274
:100DDF008B3C8A3D893EAB3CAA3DA93E1202E160A5
:100DEF0013053EE53E7002053D14F91202E1FF12B4
:050DFF00001980E22252
:0C0CA9007580FF7F06120CB57580FF0FF0
:100CB500EF24FB601214601714601C24037023E5F5
:100CC500A0541F44808016E5A0541F44A0800EE563
:100CD500A0541F44C08006E5A0541F44E0F5A0536E
:030CE500A01F222B
:100F3D00758921758C3C758AAFC2A9D28CD2AF222E
:03000B000209E205
:1009E200C0E0C0F0C083C082C0D075D000C000C0DB
:1009F20001C002C003C004C005C006C007758C3C1C
:100A0200758AAF0511E511C39414403A751100C2FD
:100A1200A9300326751200751300E512FDE4FF12DA
:100A22000E297FE87E03120D4EE513FD7F01120EA3
:100A3200297FE87E03120D4E800C30040920010448
:100A4200D2018002C201D007D006D005D004D00363
:100A5200D002D001D000D0D0D082D083D0F0D0E06C
:010A62003261
:0600030000007F21DFFE7A
:0100090022D4
:100F2C00E4FED290120003C2901200030EBE08F22F
:010F3C002292
:100CE80053890FE4F58BF58D120F2CD28E208F03CC
:100CF8002091FAC28E208F1FAF8DEFFEAD8BEDFFD6
:100D0800AC06E41201317B967A43798B783C120069
:0C0D18002612016A8F1722E4F517C28F23
:010D240022AC
:100B9C00120DB87FCC120E4B7F44120E4B120DB8B7
:100BAC007FCC120E4B7FBE120E4B120EA08F3A1240
:100BBC000EA08F3B120DB8AF3BEFFEE53AFFFDAC3C
:100BCC0006E4120131E4FBFA79C8784012002612CF
:060BDC00016A8E0A8F0B76
:010BE20022F0
:100ED400A8077401088002C333D8FCF5807F06128A
:080EE4000CB58D800F020CB566
:10082D00900C35120D287F03120D47AE0AAF0B7CCD
:10083D00037DE812030C7C007D0A12030C74262D37
:10084D00F582740C3CF583E493FD7F04120D47AEE5
:10085D000AAF0B7C007D6412030C7C007D0A120331
:10086D000C74362DF582740C3CF583E493FD7F05F5
:10087D00120D47AE0AAF0B7C007D0A12030C7C00F3
:10088D007D0A12030C74262DF582740C3CF583E45D
:10089D0093FD7F06120D47AE0AAF0B7C007D0A1249
:1008AD00030C74262DF582740C3CF583E493FD7FC7
:0E08BD0007120D47120CA97FF47E01020D4EAA
:100BE3007DC7120D2B7F03120D477F04120D477F24
:100BF30005120D47E51775F00A8475F00A84E5F0D0
:100C0300900C2693FD7F06120D47E51775F00A84B5
:100C1300E5F093FD7F07120D47120CA97FF47E01C7
:030C2300020D4E71
:100729007D40120D2BD3E513940FE5129427402138
:10073900AE12AF137C277D1012030C7C007D0A12C8
:10074900030C74262DF582740C3CF583E493FD802B
:10075900027DFF7F03120ED4120D4AD3E51394E7ED
:10076900E51294034021AE12AF137C037DE8120316
:100779000C7C007D0A12030C74262DF582740C3C46
:10078900F583E493FD80027DFF7F04120ED4120DE0
:100799004AD3E5139463E51294004021AE12AF13D6
:1007A9007C007D6412030C7C007D0A12030C742604
:1007B9002DF582740C3CF583E493FD80027DFF7F67
:1007C90005120ED4120D4AD3E5139409E5129400CB
:1007D9004021AE12AF137C007D0A12030C7C007D10
:1007E9000A12030C74262DF582740C3CF583E493EC
:1007F900FD80027DFF7F06120ED4120D4AAE12AFA4
:10080900137C007D0A12030C74262DF582740C3CAE
:10081900F583E493FD7F07120D47120CA97FF47E3F
:0408290001020D4E6D
:100AD200120D25900C2AE493FD7F03120D477DFF32
:100AE2007F04120D477F05120D47AE08AF097C0047
:100AF2007D0A12030C7C007D0A12030C74262DF56C
:100B020082740C3CF583E493FD7F06120D47AE0818
:100B1200AF097C007D0A12030C74262DF582740C39
:100B22003CF583E493FD7F07120D47120CA97FF475
:050B32007E01020D4EE2
:100B3700120D25900C2AE493FD7F03120D477DFFCC
:100B47007F04120D477F05120D47AE14AF157C00C9
:100B57007D0A12030C7C007D0A12030C74262DF506
:100B670082740C3CF583E493FD7F06120D47AE14A7
:100B7700AF157C007D0A12030C74262DF582740CC8
:100B87003CF583E493FD7F07120D47120CA97FF410
:050B97007E01020D4E7D
:10036F00C2C4D2C2D2B5D2B420B252D204D2A912D0
:10037F000D4A20B24820B23320021DE51970051234
:10038F00082D80F1E519B40105120BE380E7E5199B
:10039F00B402E212072980DDE5197005120AD28036
:1003AF00D4E519B401CF120B3780CA20020730A948
:1003BF0004D202800530A905C202E4F519C204C2B5
:1003CF00A9E4F51130B3030204B3D203D2A9120D7D
:1003DF004A30B3030204B320B33320021DE5197072
:1003EF000512082D80F1E519B40105120BE380E722
:1003FF00E519B402E212072980DDE5197005120A2A
:10040F00D280D4E519B401CF120B3780CA20021560
:10041F0030A9120519E519C3940350030204B3E47C
:10042F00F5190204B330A97C0519E519C3940240EC
:10043F0003E4F519E509651D7004E508651C602CDA
:10044F0085081C85091D0513E51370020512E512B9
:10045F00FDE4FF120E297FE87E03120D4EE513FD1A
:10046F007F01120E297FE87E03120D4EE515650EF2
:10047F007004E514650D602C85140D85150E05139C
:10048F00E51370020512E512FDE4FF120E297FE855
:10049F007E03120D4EE513FD7F01120E297FE87EBC
:1004AF0003120D4EC203C2A9E4F511D2C4C2C2D2C7
:1004BF00B5D2B420B276300273120D4A20B26D203D
:1004CF00B23320021DE519700512082D80F1E519D0
:1004DF00B40105120BE380E7E519B402E212072914
:1004EF0080DDE5197005120AD280D4E519B401CF69
:1004FF00120B3780CAE5197018C3E5099462E50835
:10050F009400500D74022509F509E43508F50880AB
:10051F001BE519B40116C3E515945FE5149400505B
:10052F000B74052515F515E43514F51420B3773044
:10053F000274120D4A20B36E20B33320021DE51949
:10054F00700512082D80F1E519B40105120BE38037
:10055F00E7E519B402E212072980DDE519700512EB
:10056F000AD280D4E519B401CF120B3780CAE5192E
:10057F007018D3E5099400E5089400400D74FE252A
:10058F0009F50974FF3508F50822E519B40117D3E9
:10059F00E5159400E5149400400C74FB2515F51532
:0705AF0074FF3514F514225E
:100A6300AE1CAF1D7C007D641202FAD3E50B9FE53B
:100A73000A9E4004C2058002D205AE0DAF0E7C0073
:100A83007D641202FAD3E5179FEC9E4004C20680F0
:100A930002D206200104C2008002D20020050553C1
:100AA30016FE80034316012006055316FD800343FB
:100AB30016022000055316FB8003431604E5166552
:0F0AC30018600B8516188518807F04120CB52259
:0F0F4D007580FF7F04120CB5E4F5800F020CB520
:10095700120F4D120F3D120F0420021DE5197005ED
:1009670012082D8025E519B40105120BE3801BE55C
:1009770019B402161207298011E5197005120AD257
:100987008008E519B40103120B37120B9C12036F91
:10099700D3E517950EE4950D50072001047D668079
:1009A7000FD3E517950EE4950D400A2001077DCC7E
:1009B700E4FF120E04120A630510E5107002050F1A
:1009C700C39432E50F94004090E4F50FF5107F5A79
:0B09D7001200197FA512001902096030
:040E86007F057E0066
:100E8A00EF1FAA0670011E4A600BE4FDEDC3940C25
:050E9A0050EE0D80F791
:010E9F002230
:020E4B00A907F5
:100E4D00E4FBC294E9139294120E86D294E9C31373
:0C0E5D00F90BBB08ED7F057E00020E8A39
:100EA000E4FBC294ECC313FCD2943094034304805B
:090EB000120E860BBB08EBAF0427
:010EB9002216
:100DB800C207D2947F0C7E00120E8AC2947F507EA6
:100DC80000120E8AD2947F0A7E00120E8AA2949292
:060DD80007120E86A207BF
:010DDE0022F2
:040EBA00D2A07F0A39
:100EBE00000000000000000000000000000000AE76
:060ECE00071FEE70EB228D
:0F0F5C00D2A1120EBAC2A17F0A120EBEC2A022EB
:0C0F6B00C2A1120EBAD2A17F0A020EBE73
:020D8C00AD07B1
:100D8E00E4FCC2A07F0A120EBEED30E704D2A180B1
:100D9E0002C2A17F0A120EBED2A0ED25E0FD7F0A8F
:090DAE00120EBE0CBC08DBC2A051
:010DB7002219
:100E6900E4FC120EBAED25E0FD30A103430501C2F1
:0C0E7900A07F0A120EBE0CBC08E8AF05FA
:010E8500224A
:100F1A00120EBAA2A1E433FDC2A07F0A120EBEAF1E
:010F2A0005C1
:010F2B0022A3
:100EEC00C2A0EF24FF92A17F0A120EBE120EBAC24C
:080EFC00A0D2A17F0A020EBE84
:100E04008F3A8D3B120F5C7F90120D8C120F1AE5F6
:100E14003A4440FF120D8C120F1AAF3B120D8C1284
:050E24000F1A020F6B24
:100E29008F3A8D3B120F5C7FA0120D8C120F1AAFF7
:100E39003A120D8C120F1AAF3B120D8C120F1A02B7
:020E49000F6B2D
:020D59008F1EEB
:100D5B00120F5C7FA0120D8C120F1AAF1E120D8C8E
:100D6B00120F1A120F5C7FA1120D8C120F1A120E9A
:100D7B00698F1F120F1A7F01120EEC120F6BAF1F30
:010D8B002245
:10002600EC4D6011E8497017ED33EC3304600DE4D4
:10003600FCFFFEFD22E933E8330470F80201D61214
:1000460001A158046009E4CC248150062850090215
:1000560001E02840030201DDC0E0EB4A7044B980AC
:1000660006D0E0FB0201CCEF4E701CBD8008EBFF12
:10007600EAFEE9FD80EBE98DF0A4FEE5F002010F52
:10008600E9CDF9EAFEEBFFEF89F0A4FCE5F0CE89B5
:10009600F0A42EFFE435F0CD89F0A42DFEE435F072
:1000A6008067EF4E7005BD80D780C3EF8BF0A4ACA0
:1000B600F0EE8BF0A42CFCE435F0F8EF8AF0A42CDB
:1000C600E5F038FCE433CB8DF0A42CFCE5F03BF8EE
:1000D600EE8AF0A42CFCE5F038F8E433CF89F0A4DE
:1000E6002CFCE5F038CF3400CE89F0A42FFFE5F0E4
:1000F6003EFEE433C98DF0A42EFEE5F039CD8AF03C
:10010600A42FFFE5F03EFEE43DFD33D0E0FB5007B3
:100116000BBB000F0201E0EC2CFCEF33FFEE33FECD
:06012600ED33FD0201B8FB
:10012C0075F020800E75F010800575F0087D007E4E
:10013C00007F003392D530D503120361EC334010AD
:10014C00EF33FFEE33FEED33FDEC33FCD5F0ED2257
:0E015C00E5F0247EA2D513CC92E7CDCEFF2293
:10016A00EDD2E7CD33EC3392D524814006E4FFFE8D
:10017A00FDFC22FCE4CFCECDCC24E0501174FF80EC
:10018A00EDC3CC13CCCD13CDCE13CECF13CF047089
:07019A00F030D5DE02036125
:1001A100E9D2E7C933E833F892D5EDD2E7CD33ECA4
:0701B10033FC5002B2D5221D
:1001B800EC30E7100FBF000C0EBE00080DBD0004A8
:1001C8000BEB6014A2D5EB13FCED92E7FD2274FF54
:1001D800FCFDFEFF22E480F8A2D574FF13FC7D80AD
:0301E800E480EFC1
:030000000208CB28
:0C08CB00787FE4F6D8FD75813E0209122A
:1001EB00E709F608DFFA8046E709F208DFFA803EF6
:1001FB0088828C83E709F0A3DFFA8032E309F608E3
:10020B00DFFA8078E309F208DFFA807088828C834A
:10021B00E309F0A3DFFA806489828A83E0A3F608FE
:10022B00DFFA805889828A83E0A3F208DFFA804CD8
:10023B0080D280FA80C680D4806980F280338010AF
:10024B0080A680EA809A80A880DA80E280CA803318
:10025B0089828A83ECFAE493A3C8C582C8CCC58390
:10026B00CCF0A3C8C582C8CCC583CCDFE9DEE78060
:10027B000D89828A83E493A3F608DFF9ECFAA9F0DF
:10028B00EDFB2289828A83ECFAE0A3C8C582C8CC35
:10029B00C583CCF0A3C8C582C8CCC583CCDFEADE4E
:1002AB00E880DB89828A83E493A3F208DFF980CCB0
:1002BB0088F0EF60010E4E60C388F0ED2402B404A9
:1002CB000050B9F582EB2402B4040050AF23234550
:0602DB00822390023B7338
:1002E100BB010689828A83E0225002E722BBFE021B
:0902F100E32289828A83E493224E
:1002FA00EF8DF0A4A8F0CF8CF0A428CE8DF0A42E18
:02030A00FE22D1
:10030C00BC000BBE0029EF8DF084FFADF022E4CCD5
:10031C00F875F008EF2FFFEE33FEEC33FCEE9DEC9E
:10032C00984005FCEE9DFE0FD5F0E9E4CEFD22EDE4
:10033C00F8F5F0EE8420D21CFEADF075F008EF2F2E
:10034C00FFED33FD4007985006D5F0F222C398FD1F
:05035C000FD5F0EA22BC
:0E036100C3E49FFFE49EFEE49DFDE49CFC22AD
:1008D700020957E493A3F8E493A34003F68001F2D7
:1008E70008DFF48029E493A3F85407240CC8C33322
:1008F700C4540F4420C8834004F456800146F6DFF1
:10090700E4800B0102040810204080900C69E47E0B
:10091700019360BCA3FF543F30E509541FFEE493E5
:10092700A360010ECF54C025E060A840B8E493A3AC
:10093700FAE493A3F8E493A3C8C582C8CAC583CAD7
:10094700F0A3C8C582C8CAC583CADFE9DEE780BE8F
:010CA800004B
:00000001FF
