:10076000C0F9A4B0999282F880908883C6A1868E41
:100770004079243019120278001008034621060E31
:10071300040E000000000116000412000000000493
:100723001700000155010B00010800010900010C2D
:0707330000010AFF010DFFA8
:0C0648007580FF7F061206547580FF0FBE
:10065400EF24FB601314601914601F24037023E556
:10066400A0541F4480F5A022E5A0541F44A0F5A087
:1006740022E5A0541F44C0F5A022E5A0541F44E085
:03068400F5A022BC
:10073B00E4FF1207BE7FF47E011207557580FF7D23
:0A074B00FF7F011207BE7FF47E015C
:0B075500EF1FAC0670011E4C70F62276
:1007F900758CFF758AFF758D3C758BAF758916D21F
:0A080900A9D2ABD2AFD28CD28E225E
:03000B000207A049
:1007A000C0E0C0D0E5112401F511E43510F510E4E6
:0E07B000350FF50FE4350EF50ED0D0D0E03247
:03001B000206BA20
:1006BA00C0E0C0D00516E516C39414401B75160099
:1006CA00851115851014850F13850E127511007585
:0D06DA001000750F00750E00D0D0D0E0327A
:0E086600E4F5A07F0412064DE4F580F5A02213
:1007BE00AE077F06120654AF06A807740108800222
:0E07CE00C333D8FCF5807F071206548D8022BD
:10001E007580FF90076FE493FD12073B7580FF7F9D
:10002E00A07E867D017C00AB15AA14A913A812C36D
:10003E0012030E402B7BA07A8679017800AF15AEA5
:10004E0014AD13AC1212027CE47B0AFAF9F8120218
:10005E007C74602BF58274073AF583E493FD80027D
:10006E007DFF7F021207BE1207517580FFE47F10DD
:10007E007E27FDFCAB15AA14A913A812C312030EFA
:10008E00402AE47B107A27F9F8AF15AE14AD13AC05
:10009E001212027CE47B0AFAF9F812027C74602BCD
:1000AE00F58274073AF583E493FD80027DFF7F03AA
:1000BE001207BE1207517580FFE47FE87E03FDFC38
:1000CE00AB15AA14A913A812C312030E402AE47B7F
:1000DE00E87A03F9F8AF15AE14AD13AC1212027C28
:1000EE00E47B0AFAF9F812027C74602BF58274072D
:1000FE003AF583E493FD80027DFF7F041207BE1262
:10010E0007517580FFE47F64FEFDFCAB15AA14A9B0
:10011E0013A812C312030E4029E47B64FAF9F8AF58
:10012E0015AE14AD13AC1212027CE47B0AFAF9F888
:10013E0012027C74602BF58274073AF583E493FD0A
:10014E0080027DFF7F051207BE1207517580FFE406
:10015E007F0AFEFDFCAB15AA14A913A812C3120345
:10016E000E4029E47B0AFAF9F8AF15AE14AD13ACC4
:10017E001212027CE47B0AFAF9F812027C74602BEC
:10018E00F58274073AF583E493FD80027DFF7F06C6
:10019E001207BE1207517580FFE4FFFEFDFCAB1582
:1001AE00AA14A913A812C312030E4020E47B0AFA64
:1001BE00F9F8AF15AE14AD13AC1212027C74602BAD
:1001CE00F58274073AF583E493FD80027DFF7F0785
:1001DE001207BE1207511206487580FF7FF47E018A
:0301EE00020755B0
:100448007580FF7DC112073B7580FF7F0212074E42
:100458007580FF7F0312074E7580FF7F0412074ED9
:100468007580FFE47B64FAF9F8AF1AAE19AD18ACE1
:100478001712027CE47B0AFAF9F812027C74702BDA
:10048800F58274073AF583E493FD7F0512074E75EC
:1004980080FFE47B0AFAF9F8AF1AAE19AD18AC1769
:1004A80012027CE47B0AFAF9F812027C74602BF5DC
:1004B8008274073AF583E493FD7F0612074E758030
:1004C800FFE47B0AFAF9F8AF1AAE19AD18AC1712A7
:1004D800027C74602BF58274073AF583E493FD7F00
:1004E8000712074E1206487580FF7FF47E01020747
:0104F80055AE
:1005E80020B01512075120B00F30B0FDE50C700592
:1005F800750C018003E4F50C20B11512075120B1E8
:100608000F30B1FDE50970057509018003E4F509AE
:1006180020B21512075120B20F30B2FDE50870055F
:100628007508018003E4F50820B31412075120B3BC
:100638000E30B3FDE50B7004750B0122E4F50B22B7
:10031F00E4F51F7F96FEFDFCAB1AAA19A918A817C2
:10032F00C312030E50028045E47F96FEFDFCAB1A0C
:10033F00AA19A918A817C312030E400FE47FFAFEDB
:10034F00FDFCA81712030E5002803CE47FFAFEFD5D
:10035F00FCAB1AAA19A918A817C312030E4013E46D
:10036F007F5E7E01FDFCA81712030E5005430D049E
:10037F008018E47F5E7E01FDFCAB1AAA19A918A8AC
:10038F0017C312030E4003530DFBE47FE87E03FDFA
:10039F00FCAB15AA14A913A812C312030E500280A6
:1003AF0048E47FE87E03FDFCAB15AA14A913A8123D
:1003BF00C312030E4010E47F887E13FDFCA81212B7
:1003CF00030E5002803DE47F887E13FDFCAB15AA1F
:1003DF0014A913A812C312030E4013E47F107E2733
:1003EF00FDFCA81212030E5005430D088018E47F80
:1003FF00107E27FDFCAB15AA14A913A812C3120374
:10040F000E4003530DF7E508B40105430D108003AB
:10041F00530DEFE509700BE50D650A601B850D0A9D
:10042F008008E509B40111750AFF85A01F7F04122A
:08043F000654850A80851FA008
:010447002292
:100585001208661207F9E50B704AE508B4010A7FFF
:1005950003120687E48F1E8004E4751E66F51DF5BB
:1005A5001CF51BAF1E120780E47FF47E01FDFCAB3A
:1005B5001EAA1DA91CA81B1201F1E47BFFFAF9F87C
:1005C50012027C8F1A8E198D188C17E50C700C127F
:1005D50004488007E50C700312001E1205E812039B
:0305E5001F80A3D1
:020687008F1FC3
:100689001208577F901206E7120845E51F4440FFFC
:100699001206E71208451208577F911206E7120859
:1006A900451207DC8F207F0112082D12000EAF20A2
:0106B900221E
:100780008F1F1208577F901206E71208457F40120C
:1007900006E7120845AF1F1206E712084502000ED1
:04081300D2A07F0AE6
:10081700000000000000000000000000000000AE23
:06082700071FEE70EB223A
:0F085700D2A1120813C2A17F0A120817C2A02251
:0C000E00C2A1120813D2A17F0A02081739
:0206E700AD075D
:1006E900E4FCC2A07F0A120817ED30E704D2A1800A
:1006F90002C2A17F0A120817D2A0ED25E0FD7F0AE8
:090709001208170CBC08DBC2A0A9
:0107120022C4
:1007DC00E4FC120813ED25E0FD30A103430501C232
:0C07EC00A07F0A1208170CBC08E8AF053B
:0107F80022DE
:10084500120813A2A1E433FDC2A07F0A120817AF54
:01085500059D
:01085600227F
:10082D00C2A0EF24FF92A17F0A120817120813C26B
:08083D00A0D2A17F0A020817F6
:030000000204F9FE
:0C04F900787FE4F6D8FD758120020540F4
:1001F100E88FF0A4CC8BF0A42CFCE98EF0A42CFCAD
:100201008AF0EDA42CFCEA8EF0A4CDA8F08BF0A42A
:100211002DCC3825F0FDE98FF0A42CCD35F0FCEB89
:100221008EF0A4FEA9F0EB8FF0A4CFC5F02ECD394E
:0F023100FEE43CFCEAA42DCE35F0FDE43CFC22BB
:1002400075F008758200EF2FFFEE33FECD33CDCC75
:1002500033CCC58233C5829BED9AEC99E5829840F8
:100260000CF582EE9BFEED9AFDEC99FC0FD5F0D6D5
:10027000E4CEFBE4CDFAE4CCF9A88222B800C1B9FF
:100280000059BA002DEC8BF084CFCECDFCE5F0CB3D
:10029000F97818EF2FFFEE33FEED33FDEC33FCEB76
:1002A00033FB10D703994004EB99FB0FD8E5E4F931
:1002B000FA227818EF2FFFEE33FEED33FDEC33FC1E
:1002C000C933C910D7059BE99A4007EC9BFCE99A12
:1002D000F90FD8E0E4C9FAE4CCFB2275F010EF2F57
:1002E000FFEE33FEED33FDCC33CCC833C810D70757
:1002F0009BEC9AE899400AED9BFDEC9AFCE899F892
:0E0300000FD5F0DAE4CDFBE4CCFAE4C8F92224
:10030E00EB9FF5F0EA9E42F0E99D42F0E89C45F045
:01031E0022BC
:10050500020585E493A3F8E493A34003F68001F282
:1005150008DFF48029E493A3F85407240CC8C333F7
:10052500C4540F4420C8834004F456800146F6DFC6
:10053500E4800B0102040810204080900713E47E3C
:10054500019360BCA3FF543F30E509541FFEE493BB
:10055500A360010ECF54C025E060A840B8E493A382
:10056500FAE493A3F8E493A3C8C582C8CAC583CAAD
:10057500F0A3C8C582C8CAC583CADFE9DEE780BE65
:01073A0000BE
:00000001FF
