:1010A600C0F9A4B0999282F880908883C6A1868EF2
:1010B6004079243019120278001008034621060EE2
:10108200011500011000020A0019011127011901BE
:10109200011A010108010109010116FF0114FF02F1
:0310A20012000039
:100F2800E493FDE4FF1210C67FF47E01120F63758F
:100F380080FF7DFF7F011210C67FF47E01120F63D0
:100F48007580FF7F021210C67FF47E01120F637551
:0B0F580080FF7F031210C67FF47E01B3
:0B0F6300EF1FAC0670011E4C70F62260
:0C0F6E007580FF7F06120F7A7580FF0F60
:100F7A00EF24FB601614601C14602224037026E51B
:100F8A00A0541F4480F5A053A01F22E5A0541F447B
:100F9A00A0F5A022E5A0541F44C0F5A022E5A05464
:060FAA001F44E0F5A02247
:1011B400758901758CB1758ADFD2A9D28CD2AF2220
:03000B000209A83F
:1009A800C0E0C0F0C083C082C0D075D000C000C015
:1009B80001C002C003C004C005C006C007758CB1E1
:1009C800758ADF0511E511C39428401775110012C7
:1009D8000EB8E47B64FAF9F81208F28F0F8E0E8DC8
:1009E8000D8C0CE5107039AE17AF18FC7D64120839
:1009F80000E4FDAB0FAA0EA90DA80CC31209845080
:100A08000FE4FDFF12105D751200751300020ABF96
:100A18007DFFE4FF12105D7512017513F4020ABF21
:100A2800E51064016003020ABF7FD07E07FDFCABBE
:100A38000FAA0EA90DA80CD3120984500F7D33E418
:100A4800FF12105D751200751364806BE47FA07E41
:100A58000FFDFCAB0FAA0EA90DA80CC31209844008
:100A68000F7DCCE4FF12105D75120175139080475D
:100A7800E47F03FEFDFCAB0FAA0EA90DA80C12081B
:100A880067E47B14FAF9F81208F2EF2438FDE4FF62
:100A980012105DE47F03FEFDFCAB0FAA0EA90DA8A2
:100AA8000C120867E47B14FAF9F81208F2EF2438FC
:100AB800F513EE34FFF512120F5FD007D006D005FC
:100AC800D004D003D002D001D000D0D0D082D083BF
:050AD800D0F0D0E03277
:1010C600A8077401088002C333D8FCF5807F061296
:0F10D6000F7A53A01F8D800F120F7A53A01F2285
:100BE6007580FF9010B2120F287580FFE47BE87ABB
:100BF60003F9F8AF0FAE0EAD0DAC0C1208F2E47BA4
:100C06000AFAF9F81208F274A62BF58274103AF56E
:100C160083E493FD7F04120F5C7580FFE47B64FA26
:100C2600F9F8AF0FAE0EAD0DAC0C1208F2E47B0A6C
:100C3600FAF9F81208F274B62BF58274103AF583B5
:100C4600E493FD7F05120F5C7580FFE47B0AFAF9D9
:100C5600F8AF0FAE0EAD0DAC0C1208F2E47B0AFA3B
:100C6600F9F81208F274A62BF58274103AF583E4AB
:100C760093FD7F06120F5C7580FFE47B0AFAF9F894
:100C8600AF0FAE0EAD0DAC0C1208F274A62BF582AA
:100C960074103AF583E493FD7F07120F5C120F6E12
:0A0CA6007580FF7FF47E01020F63EA
:100E41007580FF7D8C120F2B7580FF7F04120F5C64
:100E51007580FF7F05120F5C7580FFAE0AAF0B7CBA
:100E6100007D0A1208127C007D0A120812ED4C6006
:100E71000F74A62DF58274103CF583E493FD800276
:100E81007DFF7F061210C6120F5F7580FFAE0AAF9D
:100E91000B7C007D0A12081274A62DF58274103C99
:100EA100F583E493FD7F07120F5C120F6E7580FFCF
:070EB1007FF47E01020F63D4
:100CB0007580FF9010B0120F287580FF7F04120F0F
:100CC0005C7580FFAE12AF137C007D641208127C4D
:100CD000007D0A12081274B62DF58274103CF5835B
:100CE000E493FD7F05120F5C7580FFAE12AF137C9D
:100CF000007D0A1208127C007D0A12081274A62DCB
:100D0000F58274103CF583E493FD7F06120F5C7549
:100D100080FFAE12AF137C007D0A12081274A62D5C
:100D2000F58274103CF583E493FD7F07120F5C128B
:0C0D30000F6E7580FF7FF47E01020F63E0
:100ADD00C2C4D2C2D2B5D2B420B232120F5F20B28C
:100AED002C20B21DE5157005120BE680F4E515B44A
:100AFD000105120E4180EAE515B402E5120CB08035
:100B0D00E00510E510C394024003E4F51020B33D59
:100B1D00120F5F20B33720B31DE5157005120BE6DC
:100B2D0080F4E515B40105120E4180EAE515B40215
:100B3D00E5120CB080E00515E515C394034003E400
:100B4D00F515E515B40206850A17850B18D2C4C232
:100B5D00C2D2B5D2B420B23E120F5F20B23820B24D
:100B6D001DE5157005120BE680F4E515B4010512AF
:100B7D000E4180EAE515B402E5120CB080E0C3E544
:100B8D000B9463E50A9400500DE515B40108050BAF
:100B9D00E50B7002050A20B33F120F5F20B339E554
:100BAD00156401703320B31DE5157005120BE68039
:100BBD00F4E515B40105120E4180EAE515B402E520
:100BCD00120CB080E0D3E50B9400E50A94004008C8
:090BDD00E50B150B7002150A224C
:100DC800E5107004F5198003751901E5157004F52F
:100DD8001A8003751A01E515B40105E4F5088003C6
:100DE800750801E515B40205E4F5098003750901E4
:100DF800E51970055314FE8003431401E51A7005C4
:100E08005314FD8003431402E50870055314FB8056
:100E180003431404E50970055314F78003431408C9
:100E2800E51465166012851416AEA08516807F0439
:080E3800120F7A53A01F8EA0D7
:010E4000228F
:101120007580FF7F04120F7A53A01FE4F5800F1221
:0C1130000F7A53A01F850A17850B1822A8
:10100D001211201211B4120ADD120DC8E51570056A
:10101D00120BE680F1E515B40105120E4180E7E5EE
:09102D0015B402E2120CB080DDE2
:04113C00D2A07F0AB4
:10114000000000000000000000000000000000AEF1
:06115000071FEE70EB2208
:0F11C400D2A112113CC2A17F0A121140C2A02277
:0C11D300C2A112113CD2A17F0A021140FF
:020FE100AD075A
:100FE300E4FCC2A07F0A121140ED30E704D2A180D5
:100FF30002C2A17F0A121140D2A0ED25E0FD7F0AB3
:091003001211400CBC08DBC2A074
:01100C0022C1
:10110300E4FC12113CED25E0FD30A103430501C2CF
:0C111300A07F0A1211400CBC08E8AF05D8
:01111F0022AD
:1011A20012113CA2A1E433FDC2A07F0A121140AF8A
:0111B2000537
:0111B3002219
:10118A00C2A0EF24FF92A17F0A12114012113CC2A1
:08119A00A0D2A17F0A0211405E
:041156007F057E0093
:10115A00EF1FAA0670011E4A600BE4FDEDC3940C52
:05116A0050EE0D80F7BE
:01116F00225D
:0210E500A90759
:1010E700E4FBC294E9139294121156D294E9C31304
:0C10F700F90BBB08ED7F057E0002115ACA
:10117000E4FBC294ECC313FCD29430940343048088
:091180001211560BBB08EBAF0481
:011189002243
:10103600C200D2947F0C7E0012115AC2947F507E59
:101046000012115AD2947F0A7E0012115AA294926B
:0610560000121156A20079
:01105C002271
:100FB0001211C47F90120FE11211A27F40120FE1B3
:100FC0001211A21211C47F91120FE11211A212117B
:100FD000038F1B1211A27F0112118A1211D3AF1BB2
:010FE00022EE
:10105D008F218D221211C47F90120FE11211A2E582
:10106D00214440FF120FE11211A2AF22120FE11223
:05107D0011A20211D3D5
:0B11DF00EF1FAC0670011E4C70F622E2
:100EB8001210367FCC1210E57F441210E57FBC7EFD
:100EC800021211DF1210367FCC1210E57FBE12100D
:100ED800E51211708F251211708F26121036E485D5
:100EE8002624F523F522F521AF24AE23AD22AC212B
:100EF8007808120995A804A905AA06AB07EB4525A9
:100F0800F524EAF523E9F522E8F521AF24E47B711D
:0F0F18007A02F9F81208678F248E238D228C211C
:010F270022A7
:03000000020D3CB2
:0C0D3C00787FE4F6D8FD758126020D8357
:10080000EF8DF0A4A8F0CF8CF0A428CE8DF0A42E0C
:02081000FE22C6
:10081200BC000BBE0029EF8DF084FFADF022E4CCCA
:10082200F875F008EF2FFFEE33FEEC33FCEE9DEC93
:10083200984005FCEE9DFE0FD5F0E9E4CEFD22EDD9
:10084200F8F5F0EE8420D21CFEADF075F008EF2F23
:10085200FFED33FD4007985006D5F0F222C398FD14
:050862000FD5F0EA22B1
:10086700E88FF0A4CC8BF0A42CFCE98EF0A42CFC30
:100877008AF0EDA42CFCEA8EF0A4CDA8F08BF0A4AE
:100887002DCC3825F0FDE98FF0A42CCD35F0FCEB0D
:100897008EF0A4FEA9F0EB8FF0A4CFC5F02ECD39D2
:0F08A700FEE43CFCEAA42DCE35F0FDE43CFC223F
:1008B60075F008758200EF2FFFEE33FECD33CDCCF9
:1008C60033CCC58233C5829BED9AEC99E58298407C
:1008D6000CF582EE9BFEED9AFDEC99FC0FD5F0D659
:1008E600E4CEFBE4CDFAE4CCF9A88222B800C1B983
:1008F6000059BA002DEC8BF084CFCECDFCE5F0CBC1
:10090600F97818EF2FFFEE33FEED33FDEC33FCEBF9
:1009160033FB10D703994004EB99FB0FD8E5E4F9B4
:10092600FA227818EF2FFFEE33FEED33FDEC33FCA1
:10093600C933C910D7059BE99A4007EC9BFCE99A95
:10094600F90FD8E0E4C9FAE4CCFB2275F010EF2FDA
:10095600FFEE33FEED33FDCC33CCC833C810D707DA
:100966009BEC9AE899400AED9BFDEC9AFCE899F815
:0E0976000FD5F0DAE4CDFBE4CCFAE4C8F922A8
:10098400EB9FF5F0EA9E42F0E99D42F0E89C45F0C9
:010994002240
:10099500E8600FEFC333FFEE33FEED33FDEC33FCC0
:0309A500D8F12264
:100D480002100DE493A3F8E493A34003F68001F2A4
:100D580008DFF48029E493A3F85407240CC8C333AC
:100D6800C4540F4420C8834004F456800146F6DF7B
:100D7800E4800B0102040810204080901082E47E79
:100D8800019360BCA3FF543F30E509541FFEE49370
:100D9800A360010ECF54C025E060A840B8E493A337
:100DA800FAE493A3F8E493A3C8C582C8CAC583CA62
:100DB800F0A3C8C582C8CAC583CADFE9DEE780BE1A
:0110A500004A
:00000001FF
