:1007D000C0F9A4B0999282F880908883C6A1868ED1
:1007E0004079243019120278001008034621060EC1
:0E07F00081838587898B8D80828486888A8CA0
:10074100071655592005100125C101C102041200E7
:100751000000EB040800000017040D000000170161
:100761000C00011DFF0111FFC184C185C180C1833E
:10077200E4F521F521AF21EF3395E0FE74F72FF573
:100782008274073EF583E493FF74162521F8E6FD93
:0E07920012088F0521C3E5216480948740D7AB
:0107A0002236
:1007A100E4F521F521AF21EF3395E0FE74F02FF54B
:1007B1008274073EF583E493FF1206DA741625214D
:0E07C100F8A6070521C3E5216480948740D780
:0107CF002207
:10066F007DC1E4FF1208777FF47E0112069A90078E
:10067F00D2E493FD7F011208777FF47E0112069A70
:0B068F007DFF7F021208777FF47E01E0
:0B069A00EF1FAC0670011E4C70F62232
:0E062E00851D1143110485111D851D807F045B
:10063C00EF24FB601214601714601C24037023E574
:10064C00A0541F44808016E5A0541F44A0800EE5E2
:10065C00A0541F44C08006E5A0541F44E0F5A053ED
:03066C00A01F22AA
:1008B600758901758C7A758A5FC2A9C28CD2AF22FE
:03000B0002070EDB
:0B070E00C0E0C0D075D000C006C007DE
:10071900758C7A758A5FAEA020020D851D11531163
:0F072900FB120634D202800512062EC2028EA0E9
:09073800D007D006D0D0D0E03289
:0F08C6007580FF7F0412063CE4F5800F02063CAC
:10087700A8077401088002C333D8FCF5807F0612ED
:08088700063C8D800F02063CC7
:1002B1007DC1E4FF1206939007D11206807F0312DD
:1002C10006937F04120693E47B64FAF9F8AF15AE46
:1002D10014AD13AC121201FBE47B0AFAF9F8120116
:1002E100FB74D02BF58274073AF583E493FD7F0507
:1002F100120693E47B0AFAF9F8AF15AE14AD13AC0C
:10030100121201FBE47B0AFAF9F81201FB74E02BEB
:10031100F58274073AF583E493FD7F06120693E4B0
:100321007B0AFAF9F8AF15AE14AD13AC121201FB4A
:1003310074D02BF58274073AF583E493FD7F07129D
:1003410006937580FF7F0612063C7580FF0F02063B
:010351003C6F
:10059A0012066FE518C4540F9007D093FD7F03121B
:1005AA000693E518540F93FD7F041206937DBF7FCF
:1005BA0005120693E517C4540F93FD7F061206939E
:1005CA00E517540F93FD7F071206937580FF7F0688
:0A05DA0012063C7580FF0F02063C7C
:1005E40012066FE517C4540F9007D093FD7F0312D2
:1005F4000693E517540F93FD7F041206937DBF7F86
:1006040005120693E516C4540F93FD7F0612069354
:10061400E516540F93FD7F071206937580FF7F063E
:0A06240012063C7580FF0F02063C31
:1003DE007DC1E4FF1206939007D31206807F0312AD
:1003EE0006937F041206937F05120693E47B0AFAA6
:1003FE00F9F8AF10AE0FAD0EAC0D1201FBE47B0A97
:10040E00FAF9F81201FB74D02BF58274073AF583D2
:10041E00E493FD7F06120693E47B0AFAF9F8AF1017
:10042E00AE0FAD0EAC0D1201FB74D02BF58274071E
:10043E003AF583E493FD7F071206937580FF7F06DE
:0A044E0012063C7580FF0F02063C09
:10000E00D2C2D2C4C2B4D2B520B06912069620B004
:10001E006320B0313001051205E4801BE50C70053C
:10002E001202B18012E50CB4010512059A8008E5A2
:10003E000CB402031203DE1204581207A112053B80
:10004E001204D280CC20012CE47F0AFEFDFCAB1002
:10005E00AA0FA90EA80DD312028D4018E51024FF89
:10006E00F510E50F34FFF50FE50E34FFF50EE50D37
:10007E0034FFF50D20B15B12069620B15520B12943
:10008E001204581207A112053B1204D2E50C70059A
:10009E001202B180E8E50CB4010512059A80DEE586
:1000AE000CB402D91203DE80D4E47F63FEFDFCABF8
:1000BE0010AA0FA90EA80DC312028D5015E510241B
:1000CE0001F510E4350FF50FE4350EF50EE4350DA0
:1000DE00F50D20B23B12069620B23520B22912043D
:1000EE00581207A112053B1204D2E50C700512023C
:1000FE00B180E8E50CB4010512059A80DEE50CB47A
:10010E0002D91203DE80D4200104D2018002C20182
:10011E0020B34E12069620B34820B329120458126B
:10012E0007A112053B1204D2E50C70051202B18034
:10013E00E8E50CB4010512059A80DEE50CB402D98F
:10014E001203DE80D4050CE50CC394034003E4F5E2
:10015E000CE50C700C85100B850F0A850E09850DAC
:02016E00082265
:10053B00E516D394055008E5177004C204800DE549
:10054B0016C394054006E5177002D204200104C2BD
:10055B00058002D205200308C200D2A9D28C8009E3
:10056B00D200C2A9C28C12062E2004055311FE80A4
:10057B00034311012005055311FD8003431102E5CF
:0F058B001D54C0FFE51154C06F600312063422E7
:100458001207FE7FCC1208257F441208257F587E9C
:100468001B12069A1207FE7FCC1208257FBE1208BF
:100478002512085D8F2112085D8F221207FEE48580
:100488002226F525F524F523AF26AE25AD24AC2389
:10049800780812029EA804A905AA06AB07EB452115
:1004A800F526EAF525E9F524E8F523E47F717E02CF
:1004B800FDFCAB26120170E47BE87A03F9F812011F
:0904C800FB8F158E148D138C12AC
:0104D1002208
:1004D200200133E47F0AFEFDFCAB0BAA0AA909A89E
:1004E20008120170AB15AA14A913A812D312028D17
:1004F200400A85A021C203758010803485A021D2D4
:1005020003E4F580802A30012FE516D39405500EBE
:10051200E517700A85A021C2037580108012E516C6
:10052200C394054013E517700F85A021D203F5800F
:080532007F0512063C8521A0A3
:01053A00229E
:1006A5001208C61208B6120772E50C70051202B1DF
:1006B5008012E50CB4010512059A8008E50CB40218
:1006C500031203DE1204581207A112053B1204D2CD
:0506D50012000E80D4AC
:040843007F057E00AF
:10084700EF1FAA0670011E4A600BE4FDEDC3940C6E
:0508570050EE0D80F7DA
:01085C002279
:02082500A90721
:10082700E4FBC294E9139294120843D294E9C313E8
:0C083700F90BBB08ED7F057E00020847AE
:10085D00E4FBC294ECC313FCD294309403430480A4
:09086D001208430BBB08EBAF04B9
:01087600225F
:1007FE00C206D2947F0C7E00120847C2947F507EB0
:10080E0000120847D2947F0A7E00120847A29492E3
:06081E0006120843A206C9
:0108240022B1
:1008A300E4FEC297EF1392A3EFC313FFD2970EBEDA
:0208B30008F04B
:0108B5002220
:10088F00C29300C29700D293001208A3AF051208BB
:04089F00A3C293223B
:1006DA00E4FDC29300C29700D293001208A3E4FF7C
:1006EA00C297EDC313FD30A303430580D2970FBF12
:1006FA0008EEC29300C29700D29700C2A300D2A309
:03070A0000AF0538
:01070D0022C9
:03000000020352A6
:0C035200787FE4F6D8FD7581260203993F
:10017000E88FF0A4CC8BF0A42CFCE98EF0A42CFC2E
:100180008AF0EDA42CFCEA8EF0A4CDA8F08BF0A4AC
:100190002DCC3825F0FDE98FF0A42CCD35F0FCEB0B
:1001A0008EF0A4FEA9F0EB8FF0A4CFC5F02ECD39D0
:0F01B000FEE43CFCEAA42DCE35F0FDE43CFC223D
:1001BF0075F008758200EF2FFFEE33FECD33CDCCF7
:1001CF0033CCC58233C5829BED9AEC99E58298407A
:1001DF000CF582EE9BFEED9AFDEC99FC0FD5F0D657
:1001EF00E4CEFBE4CDFAE4CCF9A88222B800C1B981
:1001FF000059BA002DEC8BF084CFCECDFCE5F0CBBF
:10020F00F97818EF2FFFEE33FEED33FDEC33FCEBF7
:10021F0033FB10D703994004EB99FB0FD8E5E4F9B2
:10022F00FA227818EF2FFFEE33FEED33FDEC33FC9F
:10023F00C933C910D7059BE99A4007EC9BFCE99A93
:10024F00F90FD8E0E4C9FAE4CCFB2275F010EF2FD8
:10025F00FFEE33FEED33FDCC33CCC833C810D707D8
:10026F009BEC9AE899400AED9BFDEC9AFCE899F813
:0E027F000FD5F0DAE4CDFBE4CCFAE4C8F922A6
:10028D00EB9FF5F0EA9E42F0E99D42F0E89C45F0C7
:01029D00223E
:10029E00E8600FEFC333FFEE33FEED33FDEC33FCBE
:0302AE00D8F12262
:10035E000206A5E493A3F8E493A34003F68001F20A
:10036E0008DFF48029E493A3F85407240CC8C333A0
:10037E00C4540F4420C8834004F456800146F6DF6F
:10038E00E4800B0102040810204080900741E47EB7
:10039E00019360BCA3FF543F30E509541FFEE49364
:1003AE00A360010ECF54C025E060A840B8E493A32B
:1003BE00FAE493A3F8E493A3C8C582C8CAC583CA56
:1003CE00F0A3C8C582C8CAC583CADFE9DEE780BE0E
:010771000087
:00000001FF
