:10098300C0F9A4B0999282F880908883C6A1868E1C
:100993004079243019120278001008034621060E0C
:10069F00072F81838587898B8D0737808284868892
:1006AF008A8C0728505916030101250424000510D0
:1006BF00E0013611012319012204013FFF013EFF22
:1006CF0002440000C106C189C18AC180C181C182B3
:0B06DF00C183C184C185C10701460032
:100A9500758901758C3C758AAFD2A9D28CD2AF22EB
:03000B000206EBFF
:1006EB00C0E0C0D0758C3C758AAF0545E5457002FE
:1006FB000544D3943CE54494004002C200D3E54545
:10070B009464E54494004006754400754550A20876
:10071B00300601B3500CA2069208D2007544007546
:07072B004500D0D0D0E03200
:1005CF001209177FCC1209A37F441209A37FBC7EA7
:1005DF00021207A31209177FCC1209A37FBE1209BB
:1005EF00A31209F88F081209F8E48F0CF50BF50A1E
:1005FF00F509AE0BAD0AAC09780812013CA804A9A5
:10060F0005AA06AB07EB4508F50CEAF50BE9F50A69
:10061F00E8F509AF0CE47B717A02F9F812000E8F3E
:0F062F000C8E0B8D0A8C098F278E268D258C241F
:01063E002299
:1008BE00E4FD7F8E120A5CE4F50874372508F8E62D
:1008CE00FF74282508F8E6FD120A5C0508C3E50842
:0D08DE006480948740E47D807F8E020A5C78
:10096300E4F508742F2508F8E6FF120824742825F7
:0F09730008F8A6070508C3E5086480948740E4E8
:010982002252
:10077100E493FD7F01120A2C7FF47E011207A37D11
:10078100FF7F02120A2C7FF47E011207A37F03125E
:100791000A2C7FF47E011207A37F04120A2C7FF436
:0207A1007E01D7
:0B07A300EF1FAC0670011E4C70F62228
:0C0732007580FF7F0612073E7580FF0FE8
:10073E00EF24FB601214601714601C24037023E571
:10074E00A0541F44808016E5A0541F44A0800EE5DF
:10075E00A0541F44C08006E5A0541F44E0F5A053EA
:03076E00A01F22A7
:100A2C00A8077401088002C333D8FCF5807F061236
:080A3C00073E8D800F02073E0A
:10063F00E52AC4540F90098393FDE4FF12079CE54C
:10064F002A540F93FD7F0112079CE493FD7F021242
:10065F00079CE529C4540F93FD7F0312079CE529DE
:10066F00540F93FD12079AE493FD7F0512079CE543
:10067F0028C4540F93FD7F0612079CE528540F934F
:10068F00FD7F0712079C1207327FF47E010207A33A
:1007AE007D89E4FF12079C9009871207717F05125D
:1007BE00079CE53675F00A8490098393FD7F061237
:1007CE00079CE53675F00A84E5F093FD7F07120766
:0B07DE009C1207327FF47E010207A38B
:10040B00900992E493FDE4FF12079C7DFF7F01129C
:10041B00079C1207827BA07A8679017800AF27AE02
:10042B0026AD25AC24120099E47B0AFAF9F81200E8
:10043B009974832BF58274093AF583E493FD7F0558
:10044B0012079CE47B107A27F9F8AF27AE26AD256F
:10045B00AC24120099E47B0AFAF9F8120099749310
:10046B002BF58274093AF583E493FD7F0612079C02
:10047B00E47BE87A03F9F8AF27AE26AD25AC24125E
:10048B000099E47B0AFAF9F812009974832BF58230
:10049B0074093AF583E493FD7F0712079C12073228
:0704AB007FF47E010207A3AC
:1007E9007D89E4FF12079C9009881207717F051221
:1007F900079CE52375F00A8490098393FD7F06120F
:10080900079CE52375F00A84E5F093FD7F0712073D
:0B0819009C1207327FF47E010207A34F
:10029E007D89E4FF12079C7DFF7F0112079CE47BA2
:1002AE0064FAF9F8AF43AE42AD41AC40120099E4A6
:1002BE007B0AFAF9F812009974932BF58274093AB5
:1002CE00F583E493FD7F0212079CE47B0AFAF9F8AA
:1002DE00AF43AE42AD41AC40120099E47B0AFAF94D
:1002EE00F812009974832BF58274093AF583E4931E
:1002FE00FD7F0312079CE47B0AFAF9F8AF43AE4286
:10030E00AD41AC4012009974832BF58274093AF515
:10031E0083E493FD12079A7DFF7F0512079C7F06EB
:10032E0012079CE47FB4FEFDFCAB43AA42A941A890
:10033E0040C312012B50059009838003900984E479
:10034E0093FD7F07120A2C12079F1207327FF47E4D
:04035E00010207A3EE
:100858007D89E4FF12079C9009891207717F0512B0
:10086800079C7F0612079CE52275F00A84E5F09044
:10087800098393FD7F0712079C1207327FF47E01DC
:030888000207A3C1
:0F0AA5007580FF7F0412073EE4F5800F02073EC5
:10036200C2C4D2C220B21512079F20B20F30B2FD12
:100372000546E546C394034003E4F54620B315124F
:10038200079F20B30F30B3FD200704D2078002C2BB
:1003920007E4F546D2C4C2C220B23612079F20B289
:1003A2003030B2FDE546700BE536C3941750220596
:1003B20036801EE546B4010BE523C3946350120553
:1003C20023800EE546B40209E522C39408500205D3
:1003D2002220B33412079F20B32E30B3FDE54670BE
:1003E2000AE536D394004020153622E546B4010AC8
:1003F200E523D394004011152322E546B40209E512
:0904020022D394044002152222C9
:10017C00E52AC4540F75F00AA4FFE52A540F7C003D
:10018C002FFFEC35F0FEEFB53606ECB50602C209D2
:10019C00200908EF64084E7002D209E47B107A271C
:1001AC00F9F8AF27AE26AD25AC24120099A804A906
:1001BC0005AA06AB07AF23E4FCFDFEC312012B50CE
:1001CC0004C20A8002D20AE47FB4FEFDFCAB43AA4F
:1001DC0042A941A840C312012B5043E522B40404A8
:1001EC00C201803CE522B40506D201C2028033E58F
:1001FC0022B40608D201D202C2038028E522B40739
:10020C000CD201D202D203C204D205801BE522B467
:10021C000816D201D202D203D204C205800AD2013E
:10022C00D202D203D204D205200905533EFE80032C
:10023C00433E01200A05533EFD8003433E0220004D
:10024C0005533EFB8003433E04200105533EF780DB
:10025C0003433E08200205533EEF8003433E10202B
:10026C000305533EDF8003433E20200405533EBF6D
:10027C008003433E40200505533E7F8003433E8070
:10028C00E53E653F600B853E3F853F807F0412074E
:02029C003E2200
:1004B200120AA51208BE120A951205CF1209637F0D
:1004C2000112088B7E007C017DF412014FE47BFF58
:1004D200FAF9F81200998F438E428D418C40200721
:1004E2001EE546700512063F8033E546B40105124B
:1004F200040B8029E5466402702312029E801E309E
:10050200071BE54670051207AE8012E546B40105E9
:100512001207E98008E546B4020312085812036282
:1005220012017CE47FB4FEFDFCAB43AA42A941A8C0
:1005320040C312012B5005C2060204BBD2060204BC
:01054200BBFD
:100A7000E4FEC297EF1392A3EFC313FFD2970EBE0B
:020A800008F07C
:010A82002251
:100A5C00C29300C29700D29300120A70AF05120A1B
:040A6C0070C293229F
:10082400E4FDC29300C29700D29300120A70E4FF61
:10083400C297EDC313FD30A303430580D2970FBFC6
:1008440008EEC29300C29700D29700C2A300D2A3BD
:0308540000AF05ED
:01085700227E
:0409DE007F057E0013
:1009E200EF1FAA0670011E4A600BE4FDEDC3940CD2
:0509F20050EE0D80F73E
:0109F70022DD
:0209A300A907A2
:1009A500E4FBC294E91392941209DED294E9C313CD
:0C09B500F90BBB08ED7F057E000209E293
:1009F800E4FBC294ECC313FCD29430940343048008
:090A08001209DE0BBB08EBAF0480
:010A110022C2
:10091700C20BD2947F0C7E001209E2C2947F507EF4
:10092700001209E2D2947F0A7E001209E2A2949291
:060937000B1209DEA20B09
:01093D002297
:040A1200D2A07F0AE5
:100A1600000000000000000000000000000000AE22
:060A2600071FEE70EB2239
:0F0AB400D2A1120A12C2A17F0A120A16C2A022F0
:0C0AC300C2A1120A12D2A17F0A020A1678
:0208EB00AD0757
:1008ED00E4FCC2A07F0A120A16ED30E704D2A18003
:1008FD0002C2A17F0A120A16D2A0ED25E0FD7F0AE1
:09090D00120A160CBC08DBC2A0A2
:0109160022BE
:1009C100E4FC120A12ED25E0FD30A103430501C24A
:0C09D100A07F0A120A160CBC08E8AF0553
:0109DD0022F7
:100A8300120A12A2A1E433FDC2A07F0A120A16AF12
:010A9300055D
:010A9400223F
:100A4400C2A0EF24FF92A17F0A120A16120A12C250
:080A5400A0D2A17F0A020A16DC
:02088B008F08D4
:10088D00120AB47F901208EB120A83E5084440FF68
:10089D001208EB120A83120AB47F911208EB120AA6
:1008AD00831209C18F097F01120A44120AC3AF09CD
:0108BD002218
:10093E008F0D8D0E120AB47F901208EB120A83E50A
:10094E000D4440FF1208EB120A83AF0E1208EB1291
:05095E000A83020AC338
:03000000020543B3
:0C054300787FE4F6D8FD75814602058A39
:10000E00E88FF0A4CC8BF0A42CFCE98EF0A42CFC91
:10001E008AF0EDA42CFCEA8EF0A4CDA8F08BF0A40F
:10002E002DCC3825F0FDE98FF0A42CCD35F0FCEB6E
:10003E008EF0A4FEA9F0EB8FF0A4CFC5F02ECD3933
:0F004E00FEE43CFCEAA42DCE35F0FDE43CFC22A0
:10005D0075F008758200EF2FFFEE33FECD33CDCC5A
:10006D0033CCC58233C5829BED9AEC99E5829840DD
:10007D000CF582EE9BFEED9AFDEC99FC0FD5F0D6BA
:10008D00E4CEFBE4CDFAE4CCF9A88222B800C1B9E4
:10009D000059BA002DEC8BF084CFCECDFCE5F0CB22
:1000AD00F97818EF2FFFEE33FEED33FDEC33FCEB5B
:1000BD0033FB10D703994004EB99FB0FD8E5E4F916
:1000CD00FA227818EF2FFFEE33FEED33FDEC33FC03
:1000DD00C933C910D7059BE99A4007EC9BFCE99AF7
:1000ED00F90FD8E0E4C9FAE4CCFB2275F010EF2F3C
:1000FD00FFEE33FEED33FDCC33CCC833C810D7073C
:10010D009BEC9AE899400AED9BFDEC9AFCE899F876
:0E011D000FD5F0DAE4CDFBE4CCFAE4C8F92209
:10012B00EB9FF5F0EA9E42F0E99D42F0E89C45F02A
:01013B0022A1
:10013C00E8600FEFC333FFEE33FEED33FDEC33FC21
:03014C00D8F122C5
:10014F00EC8EF0A4CCC5F0CCCDF8EFA4CEC5F02D3D
:10015F00FDE43CFCE8A42EC8C5F03DFDE43CFCEFFB
:0D016F00A4FFE5F028FEE43DFDE43CFC2289
:10054F000204B2E493A3F8E493A34003F68001F20C
:10055F0008DFF48029E493A3F85407240CC8C333AD
:10056F00C4540F4420C8834004F456800146F6DF7C
:10057F00E4800B010204081020408090069FE47E67
:10058F00019360BCA3FF543F30E509541FFEE49371
:10059F00A360010ECF54C025E060A840B8E493A338
:1005AF00FAE493A3F8E493A3C8C582C8CAC583CA63
:1005BF00F0A3C8C582C8CAC583CADFE9DEE780BE1B
:0106EA00000F
:00000001FF
