:040BB100D2A07F0A45
:100BB500000000000000000000000000000000AE82
:060BC500071FEE70EB2299
:0F0C2700D2A1120BB1C2A17F0A120BB5C2A0223B
:0C000E00C2A1120BB1D2A17F0A020BB5F7
:020B0000AD073F
:100B0200E4FCC2A07F0A120BB5ED30E704D2A1804B
:100B120002C2A17F0A120BB5D2A0ED25E0FD7F0A29
:090B2200120BB50CBC08DBC2A0EB
:010B2B0022A7
:100B9400E4FC120BB1ED25E0FD30A103430501C2D5
:0C0BA400A07F0A120BB50CBC08E8AF05DE
:010BB0002222
:100C1500120BB1A2A1E433FDC2A07F0A120BB5AF3E
:010C250005C9
:010C260022AB
:100BE500C2A0EF24FF92A17F0A120BB5120BB1C26E
:080BF500A0D2A17F0A020BB59A
:100B5600C0F9A4B0999282F880908883C6A1868E47
:100B66004079243019120278001008034621060E37
:100A3100C1070432000000000240014502470145A0
:100A410002490145043B0000003204260000000079
:100A5100043700000000014200C104C106C10301C6
:100A61003FFF0136FFC105C188C189C180C181C174
:100A710082042A00000000042E000000000443004C
:090A81000003E80422000000005B
:100B2C00E47B0AFAF9F812060E74562BF582740B54
:0F0B3C003AF5837F07E493FD120BFD7FF47E01F2
:0B0B4B00EF1FAC0670011E4C70F6227C
:0C0A8B007580FF7F06120A977580FF0F30
:100A9700EF24FB601214601714601C24037023E515
:100AA700A0541F44808016E5A0541F44A0800EE583
:100AB700A0541F44C08006E5A0541F44E0F5A0538E
:030AC700A01F224B
:100BCB00758916758CFF758AFF758D3C758BAFD249
:0A0BDB00A9D2ABD28CD28ED2AF2289
:03000B00020B766F
:100B7600C0E0C0D0E52D2401F52DE4352CF52CE49C
:0E0B8600352BF52BE4352AF52AD0D0D0E032FD
:03001B000206DEFC
:1006DE00C0E0C0F0C083C082C0D075D000C000C0E2
:1006EE0001C002C003C004C005C006C007758D3C22
:1006FE00758BAF300334E53A2401F53AE43539F51C
:10070E0039E43538F538E43537F537E47F14FEFD36
:10071E00FCAB3AAA39A938A837C31206A040172055
:10072E000504D2058004C2058000753A00753900B3
:10073E00753800753700E5312401F531E43530F5B3
:10074E0030E4352FF52FE4352EF52EE47F14FEFD23
:10075E00FCAB31AA30A92FA82EC31206A040502000
:10076E00040E852D35852C34852B33852A32800059
:10077E00852D29852C28852B27852A26AB29AA2865
:10078E00A927A8267F407E427D0F7C0012060E8F81
:10079E003E8E3D8D3C8C3B752D00752C00752B00CF
:1007AE00752A00753100753000752F00752E00D03A
:1007BE0007D006D005D004D003D002D001D000D08F
:0A07CE00D0D082D083D0F0D0E0320A
:0F0C36007580FF7F04120A97E4F5800F020A977A
:100BFD00A8077401088002C333D8FCF5807F061264
:080C0D000A978D800F020A977F
:10001E00900B65E493FDE4FF120B447F407E427D1E
:10002E000F7C00AB35AA34A933A832C31206A050F8
:10003E00047DFF80297B407A42790F7800AF35AE80
:10004E0034AD33AC3212060EE47B0AFAF9F812061E
:10005E000E74562BF582740B3AF583E493FD7F02F2
:10006E00120BFD120B477FA07E867D017C00AB3507
:10007E00AA34A933A832C31206A050047DFF8029EA
:10008E007BA07A8679017800AF35AE34AD33AC32D1
:10009E0012060EE47B0AFAF9F812060E74562BF5C8
:1000AE0082740B3AF583E493FD7F02120BFD120B63
:1000BE0047E47F107E27FDFCAB35AA34A933A83266
:1000CE00C31206A050047DFF8028E47B107A27F926
:1000DE00F8AF35AE34AD33AC3212060EE47B0AFA0D
:1000EE00F9F812060E74562BF582740B3AF583E46A
:1000FE0093FD7F03120BFD120B47E47FE87E03FD99
:10010E00FCAB35AA34A933A832C31206A050047D25
:10011E00FF8028E47BE87A03F9F8AF35AE34AD33CF
:10012E00AC3212060EE47B0AFAF9F812060E745679
:10013E002BF582740B3AF583E493FD7F04120BFDCD
:10014E00120B47E47F64FEFDFCAB35AA34A933A83D
:10015E0032C31206A050047DFF8027E47B64FAF9B7
:10016E00F8AF35AE34AD33AC3212060EE47B0AFA7C
:10017E00F9F812060E74562BF582740B3AF583E4D9
:10018E0093FD7F05120BFD120B47E47F0AFEFDFC6B
:10019E00AB35AA34A933A832C31206A050047DFF92
:1001AE008027E47B0AFAF9F8AF35AE34AD33AC32C2
:1001BE0012060EE47B0AFAF9F812060E74562BF5A7
:1001CE0082740B3AF583E493FD7F06120BFD120B3E
:1001DE0047AF35AE34AD33AC32120B2C120A8B7FD7
:0601EE00F47E01020B4B40
:1001F4007DC8E4FF120B447F407E427D0F7C00AB40
:100204003EAA3DA93CA83BC31206A050067DFF7F31
:1002140001802B7B407A42790F7800AF3EAE3DAD32
:100224003CAC3B12060EE47B0AFAF9F812060E7493
:10023400562BF582740B3AF583E493FD7F02120B7F
:10024400FD120B477FA07E867D017C00AB3EAA3D5C
:10025400A93CA83BC31206A050047DFF80297BA0C3
:100264007A8679017800AF3EAE3DAD3CAC3B1206D8
:100274000EE47B0AFAF9F812060E74562BF5827412
:100284000B3AF583E493FD7F02120BFD120B47E456
:100294007F107E27FDFCAB3EAA3DA93CA83BC312C0
:1002A40006A050047DFF8028E47B107A27F9F8AF7C
:1002B4003EAE3DAD3CAC3B12060EE47B0AFAF9F8C7
:1002C40012060E74562BF582740B3AF583E493FDF3
:1002D4007F03120BFD120B47E47FE87E03FDFCABAA
:1002E4003EAA3DA93CA83BC31206A050047DFF8052
:1002F40028E47BE87A03F9F8AF3EAE3DAD3CAC3B75
:1003040012060EE47B0AFAF9F812060E74562BF55F
:1003140082740B3AF583E493FD7F04120BFD120BF8
:1003240047E47F64FEFDFCAB3EAA3DA93CA83BC369
:100334001206A050047DFF8027E47B64FAF9F8AF2D
:100344003EAE3DAD3CAC3B12060EE47B0AFAF9F836
:1003540012060E74562BF582740B3AF583E493FD62
:100364007F05120BFD120B47E47F0AFEFDFCAB3E3A
:10037400AA3DA93CA83BC31206A050047DFF8027D8
:10038400E47B0AFAF9F8AF3EAE3DAD3CAC3B120655
:100394000EE47B0AFAF9F812060E74562BF58274F1
:1003A4000B3AF583E493FD7F06120BFD120B47AF66
:1003B4003EAE3DAD3CAC3B120B2C120A8B7FF47E5F
:0403C40001020B4BDC
:100910007DC1E4FF120B447DBF7F01120B44300701
:1009200005900B598003900B57E493FD7F02120B47
:10093000FD120B477DFF7F03120B447F04120B4413
:10094000AE40AF417C007D6412057D7C007D0A12C3
:10095000057D74662DF582740B3CF5837F05120BC3
:1009600041AE40AF417C007D0A12057D7C007D0ACE
:1009700012057D74562DF582740B3CF583E493FDCE
:100980007F06120B44AE40AF417C007D0A12057D0C
:1009900074562DF582740B3C120B3D120A8B7FF4BA
:0509A0007E01020B4B7B
:1003C80020B069120B4720B06320B055E542700594
:1003D80012001E8012E542B401051201F48008E5FE
:1003E80042B402031209107F03120ACA7E007C017C
:1003F8007DF41206B1E47BFFFAF9F812060E8E4777
:100408008F487F01120ACA7E007C017DF41206B172
:10041800E47BFFFAF9F812060E8E498F4AD2038060
:10042800A8C203200404D2048002C20420B16512C9
:100438000B4720B15F20B153E542700512001E80C2
:1004480012E542B401051201F48008E542B4020342
:100458001209107F03120ACA7E007C017DF412067D
:10046800B1E47BFFFAF9F812060E8E478F487F0138
:10047800120ACA7E007C017DF41206B1E47BFFFA01
:10048800F9F812060E8E498F4A80AA200604D20671
:100498008002C20620B265120B4720B25F20B25319
:1004A800E542700512001E8012E542B401051201F2
:1004B800F48008E542B402031209107F03120ACA45
:1004C8007E007C017DF41206B1E47BFFFAF9F81294
:1004D800060E8E478F487F01120ACA7E007C017D76
:1004E800F41206B1E47BFFFAF9F812060E8E498F72
:1004F8004A80AA200704D2078002C20720B37512D7
:100508000B4720B36F20B353E542700512001E80DD
:1005180012E542B401051201F48008E542B4020371
:100528001209107F03120ACA7E007C017DF41206AC
:10053800B1E47BFFFAF9F812060E8E478F487F0167
:10054800120ACA7E007C017DF41206B1E47BFFFA30
:10055800F9F812060E8E498F4A80AAE54270047592
:10056800420122E542B4010475420222E542B40286
:0505780003E4F542223E
:1007D800AE49AF4AE4FCFDAB25AA24A923A822C34D
:1007E8001206A05004C2088002D208AF35AE34AD5C
:1007F80033AC32AB29AA28A927A826D31206A040D1
:1008080004C2098002D209E5427004C2008002D203
:1008180000E542B40104C2018002D201E542B402FB
:1008280004C2028002D2022008055336FE80034328
:1008380036012009055336FD8003433602200005A2
:100848005336FB80034336042001055336F78003F3
:100858004336082002055336EF8003433610E53649
:10086800653F600B85363F853F807F04120A9722DB
:10087800120C36120BCBE542700512001E8012E5F1
:1008880042B401051201F48008E542B402031209DA
:1008980010200708854740854841801420061185A7
:1008A8004940854A41E4854A25854924F523F522AE
:1008B8007F03120ACA7E007C017DF41206B1E47B34
:1008C800FFFAF9F812060E8E478F487F01120ACAFE
:1008D8007E007C017DF41206B1E47BFFFAF9F81280
:1008E800060E8E498F4A1203C82005111207D885B3
:1008F800363F853F807F04120A9702087E7580FF85
:080908007F04120A9702087E29
:020ACA008F0893
:100ACC00120C277F90120B00120C15E5084440FF06
:100ADC00120B00120C15120C277F91120B00120C2A
:100AEC0015120B948F09120C157F01120BE51200D5
:030AFC000EAF0931
:010AFF0022D4
:030000000209A54D
:0C09A500787FE4F6D8FD75814A0209EC69
:10057D00BC000BBE0029EF8DF084FFADF022E4CC62
:10058D00F875F008EF2FFFEE33FEEC33FCEE9DEC2B
:10059D00984005FCEE9DFE0FD5F0E9E4CEFD22ED71
:1005AD00F8F5F0EE8420D21CFEADF075F008EF2FBB
:1005BD00FFED33FD4007985006D5F0F222C398FDAC
:0505CD000FD5F0EA2249
:1005D20075F008758200EF2FFFEE33FECD33CDCCE0
:1005E20033CCC58233C5829BED9AEC99E582984063
:1005F2000CF582EE9BFEED9AFDEC99FC0FD5F0D640
:10060200E4CEFBE4CDFAE4CCF9A88222B800C1B969
:100612000059BA002DEC8BF084CFCECDFCE5F0CBA7
:10062200F97818EF2FFFEE33FEED33FDEC33FCEBE0
:1006320033FB10D703994004EB99FB0FD8E5E4F99B
:10064200FA227818EF2FFFEE33FEED33FDEC33FC88
:10065200C933C910D7059BE99A4007EC9BFCE99A7C
:10066200F90FD8E0E4C9FAE4CCFB2275F010EF2FC1
:10067200FFEE33FEED33FDCC33CCC833C810D707C1
:100682009BEC9AE899400AED9BFDEC9AFCE899F8FC
:0E0692000FD5F0DAE4CDFBE4CCFAE4C8F9228F
:1006A000EB9FF5F0EA9E42F0E99D42F0E89C45F0B0
:0106B0002227
:1006B100EC8EF0A4CCC5F0CCCDF8EFA4CEC5F02DD6
:1006C100FDE43CFCE8A42EC8C5F03DFDE43CFCEF94
:0D06D100A4FFE5F028FEE43DFDE43CFC2222
:1009B100020878E493A3F8E493A34003F68001F2DC
:1009C10008DFF48029E493A3F85407240CC8C33347
:1009D100C4540F4420C8834004F456800146F6DF16
:1009E100E4800B0102040810204080900A31E47E6B
:1009F100019360BCA3FF543F30E509541FFEE4930B
:100A0100A360010ECF54C025E060A840B8E493A3D1
:100A1100FAE493A3F8E493A3C8C582C8CAC583CAFC
:100A2100F0A3C8C582C8CAC583CADFE9DEE780BEB4
:010A8A00006B
:00000001FF
