:10090E00C0F9A4B0999282F880908883C6A1868E91
:10091E004079243019120278001008034621060E81
:10085800021800F5020A01C202080032021101C2A0
:10086800020F00320214002D010C00020D000001DD
:100878001700C104C103C185C186C180C181C102FD
:060888000116FF0113FF41
:070003000000007F1EDFFE7C
:01000A0022D3
:10081E007DC3E4FF1209857FF41208517DFF7F012D
:10082E001209857FF41208517F021209857FF41296
:10083E0008517F031209857FF41208517F041209B3
:03084E00857FF4AF
:07085100AE071FEE70FA2252
:1009C700E4FEC290120003D2901200030EBE08F29A
:0109D70022FD
:1007A80053890FE4F58BF58DD2ABD2AF1209C73060
:1007B8009103308FFAC28E208F1CAF8DEFFEAD8B68
:1007C800EDFFAC06E41201197B967A43798B783CED
:0A07D80012000E020152C28F7F00D2
:0107E20022F4
:0C072B007580FF7F061207377580FF0FF6
:10073700EF24FB601214601714601C24037023E578
:10074700A0541F44808016E5A0541F44A0800EE5E6
:10075700A0541F44C08006E5A0541F44E0F5A053F1
:03076700A01F22AE
:1009D800758901758C3C758AAFD2A9C28CD2AF22B9
:03000B000207E306
:1007E300C0E0C0D0758C3C758AAF050C050EE50ED4
:1007F3007002050DE50CC394024008750C00A201BC
:10080300B39201C3E50E940AE50D94004008750DFB
:0B08130000750E00D202D0D0D0E03201
:10098500A8077401088002C333D8FCF5807F0612DE
:0809950007378D800F020737C0
:1006B9007DC1120820AE18AF197C007D641201E5D6
:1006C9007C007D0A1201E5741E2DF58274093CF542
:1006D90083E493FD7F0512084CAE18AF197C007DA9
:1006E9000A1201E57C007D0A1201E5740E2DF582DE
:1006F90074093CF583E493FD7F0612084CAE18AFEC
:10070900197C007D0A1201E5740E2DF58274093CED
:10071900F583E493FD7F0712084C12072B7FF4023F
:02072900085175
:1004E5007D8CE4FF12084C7DFF7F0112084C7F02D2
:1004F50012084CAE11AF127C007D641201E57C0040
:100505007D0A1201E5741E2DF58274093CF583E41C
:1005150093FD7F0312084CAE11AF127C007D0A12C9
:1005250001E57C007D0A1201E5740E2DF582740942
:100535003CF583E493FD12084A7DFF7F0512084CC4
:10054500AE0FAF107C007D641201E57C007D0A12C0
:1005550001E5741E2DF58274093CF583E493FD7F56
:100565000612084CAE0FAF107C007D0A1201E57C27
:10057500007D0A1201E5740E2DF58274093CF583A0
:10058500E493FD7F0712084C12072B7FF4020851F4
:1005950012081EC3E5159464E51494004021AE14B9
:1005A500AF157C007D641201E57C007D0A1201E532
:1005B500740E2DF58274093CF583E493FD80027D6C
:1005C500FF7F051209857FF4120851C3E515940ACA
:1005D500E51494004021AE14AF157C007D0A12018C
:1005E500E57C007D0A1201E5740E2DF58274093C47
:1005F500F583E493FD80027DFF7F061209857FF474
:10060500120851AE14AF157C007D0A1201E5740E77
:100615002DF58274093CF583E493FD7F0712084CA0
:0806250012072B7FF4020851BB
:1008EE0012081E900918E493FD7F0512084C7F062E
:1008FE0012084C7F0712084C12072B7FF402085186
:1004200020B3237FF412085120B31B30B3FD05170E
:10043000E517D39402400FE4F51785110A85120BD6
:10044000850F0885100920B2147FF412085120B2DC
:100450000C30B2FD200404D2048002C20420B14456
:10046000E5176402703E7FF412085120B13630B1B6
:10047000FD200419E51264F47004E51164016024A0
:1004800074322512F512E43511F5118017E5106468
:10049000F47004E50F6401600B74322510F510E46C
:1004A000350FF50F20B03DE517640270377FF41269
:1004B000085120B02F30B0FD200415E512643245FC
:1004C00011602174CE2512F51274FF3511F5112239
:1004D000E5106432450F600C74CE2510F51074FFE2
:0504E000350FF50F22AD
:0F09E8007580FF7F04120737E4F5800F02073791
:10076A002005055313FE8003431301200605531386
:10077A00FD80034313022000055313FB8003431338
:10078A000420010553137F8003431380E513651684
:0E079A00600B8513168516807F041207372228
:10034300E4F51AF51B1209E81209D8E517700B1228
:1003530006B9C205D206D2008039E517B40126D307
:10036300E519950BE518950A5010C3E5199509E5AC
:10037300189508400512059580031208EEC206D2AF
:1003830005D200800EE517B402091204E5D205D2A6
:1003930006C200D3E519950BE518950A5042C3E54B
:1003A300199509E51895084037D28CE5159450E561
:1003B30014940040047FFF802DD3E5159414E514B5
:1003C300940050047F33801EE51524FBFFE51434AD
:1003D300FFFE7C007D331201D37D0F1201E5800601
:1003E300C28CD201E4FF12092E7F0312088F7E0014
:1003F3007C017DF4120316E47BFFFAF9F81202760E
:100403008E188F1912076A12042020020302034E6A
:0D041300C2021207A87514008F1502034ED7
:02088F008F1CBC
:100891001209F77F901208C21209B5E51C4440FF06
:1008A1001208C21209B51209F77F911208C2120982
:1008B100B512094E8F1D7F0112099D120A06AF1D47
:0108C1002214
:10092E008F1C1209F77F901208C21209B57F401270
:10093E0008C21209B5AF1C1208C21209B5020A0686
:04096B00D2A07F0A8D
:10096F00000000000000000000000000000000AECA
:06097F00071FEE70EB22E1
:0F09F700D2A112096BC2A17F0A12096FC2A022FE
:0C0A0600C2A112096BD2A17F0A02096F85
:0208C200AD0780
:1008C400E4FCC2A07F0A12096FED30E704D2A180D4
:1008D40002C2A17F0A12096FD2A0ED25E0FD7F0AB2
:0908E40012096F0CBC08DBC2A074
:0108ED0022E8
:10094E00E4FC12096BED25E0FD30A103430501C265
:0C095E00A07F0A12096F0CBC08E8AF056E
:01096A00226A
:1009B50012096BA2A1E433FDC2A07F0A12096FAF31
:0109C500052C
:0109C600220E
:10099D00C2A0EF24FF92A17F0A12096F12096BC248
:0809AD00A0D2A17F0A02096F2C
:10000E00EC4D6011E8497017ED33EC3304600DE4EC
:10001E00FCFFFEFD22E933E8330470F80201BE1244
:10002E00018958046009E4CC248150062850090245
:10003E0001C82840030201C5C0E0EB4A7044B980F4
:10004E0006D0E0FB0201B4EF4E701CBD8008EBFF42
:10005E00EAFEE9FD80EBE98DF0A4FEE5F00200F783
:10006E00E9CDF9EAFEEBFFEF89F0A4FCE5F0CE89CD
:10007E00F0A42EFFE435F0CD89F0A42DFEE435F08A
:10008E008067EF4E7005BD80D780C3EF8BF0A4ACB8
:10009E00F0EE8BF0A42CFCE435F0F8EF8AF0A42CF3
:1000AE00E5F038FCE433CB8DF0A42CFCE5F03BF806
:1000BE00EE8AF0A42CFCE5F038F8E433CF89F0A4F6
:1000CE002CFCE5F038CF3400CE89F0A42FFFE5F0FC
:1000DE003EFEE433C98DF0A42EFEE5F039CD8AF054
:1000EE00A42FFFE5F03EFEE43DFD33D0E0FB5007CC
:1000FE000BBB000F0201C8EC2CFCEF33FFEE33FEFE
:06010E00ED33FD0201A02B
:1001140075F020800E75F010800575F0087D007E66
:10012400007F003392D530D503120308EC3340101E
:10013400EF33FFEE33FEED33FDEC33FCD5F0ED226F
:0E014400E5F0247EA2D513CC92E7CDCEFF22AB
:10015200EDD2E7CD33EC3392D524814006E4FFFEA5
:10016200FDFC22FCE4CFCECDCC24E0501174FF8004
:10017200EDC3CC13CCCD13CDCE13CECF13CF0470A1
:07018200F030D5DE02030896
:10018900E9D2E7C933E833F892D5EDD2E7CD33ECBC
:0701990033FC5002B2D52235
:1001A000EC30E7100FBF000C0EBE00080DBD0004C0
:1001B0000BEB6014A2D5EB13FCED92E7FD2274FF6C
:1001C000FCFDFEFF22E480F8A2D574FF13FC7D80C5
:0301D000E480EFD9
:0300000002062DC8
:0C062D00787FE4F6D8FD75812002067489
:1001D300EF8DF0A4A8F0CF8CF0A428CE8DF0A42E40
:0201E300FE22FA
:1001E500BC000BBE0029EF8DF084FFADF022E4CCFE
:1001F500F875F008EF2FFFEE33FEEC33FCEE9DECC7
:10020500984005FCEE9DFE0FD5F0E9E4CEFD22ED0C
:10021500F8F5F0EE8420D21CFEADF075F008EF2F56
:10022500FFED33FD4007985006D5F0F222C398FD47
:050235000FD5F0EA22E4
:10023A0075F008758200EF2FFFEE33FECD33CDCC7B
:10024A0033CCC58233C5829BED9AEC99E5829840FE
:10025A000CF582EE9BFEED9AFDEC99FC0FD5F0D6DB
:10026A00E4CEFBE4CDFAE4CCF9A88222B800C1B905
:10027A000059BA002DEC8BF084CFCECDFCE5F0CB43
:10028A00F97818EF2FFFEE33FEED33FDEC33FCEB7C
:10029A0033FB10D703994004EB99FB0FD8E5E4F937
:1002AA00FA227818EF2FFFEE33FEED33FDEC33FC24
:1002BA00C933C910D7059BE99A4007EC9BFCE99A18
:1002CA00F90FD8E0E4C9FAE4CCFB2275F010EF2F5D
:1002DA00FFEE33FEED33FDCC33CCC833C810D7075D
:1002EA009BEC9AE899400AED9BFDEC9AFCE899F898
:0E02FA000FD5F0DAE4CDFBE4CCFAE4C8F9222B
:0E030800C3E49FFFE49EFEE49DFDE49CFC2206
:10031600EC8EF0A4CCC5F0CCCDF8EFA4CEC5F02D74
:10032600FDE43CFCE8A42EC8C5F03DFDE43CFCEF32
:0D033600A4FFE5F028FEE43DFDE43CFC22C0
:10063900020343E493A3F8E493A34003F68001F291
:1006490008DFF48029E493A3F85407240CC8C333C2
:10065900C4540F4420C8834004F456800146F6DF91
:10066900E4800B0102040810204080900858E47EC1
:10067900019360BCA3FF543F30E509541FFEE49386
:10068900A360010ECF54C025E060A840B8E493A34D
:10069900FAE493A3F8E493A3C8C582C8CAC583CA78
:1006A900F0A3C8C582C8CAC583CADFE9DEE780BE30
:01088E000069
:00000001FF
