:100AD100C0F9A4B0999282F880908883C6A1868ECD
:100AE1004079243019120278001008034621060EBD
:0E0AF10080828486888A8C81838587898B8D9C
:1007E90001320C072B00010103010125012A0F0128
:1007F9003E1E013D05023B00E2012202012714C110
:1008090006C107013800013900C108013A00012871
:1008190000C105C109C18AC18BC180C181C182C121
:1008290083C1040133FF0129FF04230000000004F0
:05083900340000000086
:100B2B00E4FD7F8E120C00E4F508E508900AF193C2
:100B3B00FF742B2508F8E6FD120C000508E508C329
:0B0B4B00940740E67D8E7F8E020C00B8
:100B7B00E4F508E508900AF893FF120A9D742B25FB
:0D0B8B0008F8A6070508E508C3940740E632
:010B9800223A
:1009B900E493FD7F01120BD07FF47E011209EB7DD8
:1009C900FF7F02120BD07FF47E011209EB7F031225
:1009D9000BD07FF47E011209EB7F04120BD07FF458
:0209E9007E018D
:0B09EB00EF1FAC0670011E4C70F622DE
:0C097A007580FF7F061209867580FF0F54
:10098600EF24FB601214601714601C24037023E527
:10099600A0541F44808016E5A0541F44A0800EE595
:1009A600A0541F44C08006E5A0541F44E0F5A053A0
:0309B600A01F225D
:100BD000A8077401088002C333D8FCF5807F061291
:080BE00009868D800F020986D1
:10078B00E52DC4540F900AD193FDE4FF1209E4E563
:10079B002D540F93FD7F011209E47DBF7F021209D7
:1007AB00E4E52CC4540F93FD7F031209E4E52C54AC
:1007BB000F93FD1209E27DBF7F051209E4E52BC4FF
:1007CB00540F93FD7F061209E4E52B540F93FD7F25
:0E07DB00071209E412097A7FF47E010209EB8D
:100893007DC7E4FF1209E4E532900AD11209BAE5F3
:1008A3002A75F0648475F00A84E5F093FD7F0512E0
:1008B30009E4E52A75F00A8475F00A84E5F093FDEE
:1008C3007F061209E4E52A75F00A84E5F093FD7FBB
:0E08D300071209E412097A7FF47E010209EB94
:10083F007D89E4FF1209E47DFE7F011209E40D12A8
:10084F0009CAE53E75F0648475F00A84E5F0900AF4
:10085F00D193FD7F051209E4E53E75F00A8475F02A
:10086F000A84E5F093FD7F061209E4E53E75F00A70
:10087F0084E5F093FD7F071209E412097A7FF47E75
:04088F00010209EB6E
:1008E1007D89E4FF1209E47DF71209BCE53D75F04D
:1008F100648475F00A84E5F0900AD193FD7F0512B6
:1009010009E4E53D75F00A8475F00A84E5F093FD8C
:100911007F061209E4E53D75F00A84E5F093FD7F59
:0E092100071209E412097A7FF47E010209EB45
:1005C6007D89E4FF1209E47DBF7F011209E47DFF06
:1005D6007F021209E47F031209E4AE3BAF3C7C00C4
:1005E6007D0A1201C87C007D0A1201C874D12DF55E
:1005F60082740A3CF583E493FD1209E2AE3BAF3CFC
:100606007C007D0A1201C87C007D0A1201C874D1E3
:100616002DF582740A3CF583E493FD7F051209E407
:10062600AE3BAF3C7C007D0A1201C87C007D0A12FD
:1006360001C874E12DF582740A3CF583E493FD7FCD
:10064600061209E4AE3BAF3C7C007D0A1201C87479
:10065600D12DF582740A3CF583E493FD7F071209D8
:0B066600E412097A7FF47E010209EB28
:100A31007D8CE4FF1209E4900AD21209B97F0512F4
:100A410009E4900AD1E493FD7F061209E4E52275D9
:100A5100F00A84E5F093FD7F071209E412097A7F19
:060A6100F47E010209EB26
:1009F6007D8CE4FF1209E4900AD31209B97F05122F
:100A060009E4E52775F00A84900AD193FD7F061262
:100A160009E4E52775F00A84E5F093FD7F071209DE
:0B0A2600E412097A7FF47E010209EB64
:1004DA00C2C4D2C220B23D1209E720B23730B2FDFF
:1004EA00200720E53870057538018028E538B40101
:1004FA0008753802E4F53A801BE538B40216E4F5CB
:10050A00388011E53970057539018008E539B4017B
:10051A0003E4F53920B3181209E720B31230B3FD0A
:10052A00200707D207E4F5398005C207E4F538D277
:10053A00C4C2C220B2521209E720B24C30B2FDE561
:10054A00397032E522B40205752203803BE522B4F4
:10055A0003057522058031E522B405057522078059
:10056A0027E522B40705752209801DE522B409187A
:10057A007522028013E539B4010E740A2527F5277E
:10058A00D3945A400375270A20B3301209E720B3DF
:10059A002A30B3FDE538B40109200803D20822C283
:1005AA000822E538B40214E53A7004753A0122E5E6
:0C05BA003AB40104753A0222E4F53A223A
:060C740000007F21DFFEFD
:010C7A002257
:100C3900E4FED290120C74C290120C740EBE08F22B
:010C49002288
:10092F0053890FE4F58BF58D120C39D28E3091036C
:10093F00308FFAC28E208F2DAF8DEFFEAD8BEDFF76
:10094F0020060CD20675F017A4F52AF53EF53DAD3D
:10095F0007AC06E412010E7B967A43798B783C1232
:0A096F000003020147C28FE4FEFFFF
:01097900225B
:10067100E5387007200704C20A8022E538B4010B6F
:10068100200708D20AC20BD2008016E538B4020B4B
:10069100200708D20AD20BC2008006D20AD20BD29E
:1006A10000200804C2018002D201200A055329FE5C
:1006B1008003432901200B055329FD8003432902AF
:1006C1002000055329FB80034329042001055329F8
:1006D100F780034329082002055329EF80034329AA
:1006E100102003055329DF8003432920E5296533C1
:0E06F100600B8529338533807F041209862231
:0F0C4A007580FF7F04120986E4F5800F0209868A
:10034800120C4A120B2B200736E538700512078B62
:100358008041E538B401051208938037E538640216
:100368007031E53A700512083F8028E53AB4010576
:100378001208E1801EE53AB402191205C68014304D
:100388000711E5397005120A318008E539B401030F
:100398001209F6120B7BE52AD3945040047DFF80A6
:1003A8001FE52AC3940A50047D338014E52A75F0AA
:1003B80066A4FFAEF07C007D231201C8EF2415FD72
:1003C800E4FF120B567F01120A678F28E528C394B1
:1003D80080500BD20320090FD205D2098009C2032D
:1003E800300904D205C20930055420085112092FDA
:1003F8008F2AE5262401F526E43525F525E435245C
:10040800F524E43523F523E4FCFDFEE5372FF53725
:10041800EE3536F536ED3535F535EC3534F534E46D
:100428007F0AAB37AA36A935A83412021DAB26AA13
:1004380025A924A8231202A88E3B8F3CC205E52BD0
:10044800C4540FFFE52B540F2FFFE433FEAD227C7D
:10045800001201C8ED7059300856200455D2041214
:10046800092F8F2AE5262401F526E43525F525E40C
:100478003524F524E43523F523E4FCFDFEE5372F88
:10048800F537EE3536F536ED3535F535EC3534F5E9
:1004980034E47F0AAB37AA36A935A83412021DAB5B
:1004A80026AA25A924A8231202A88E3B8F3C8002E5
:1004B800C2041204DA120671E52AD3953E40038578
:1004C8002A3EE52AC3953D400302034E852A3D0294
:0204D800034ED1
:100C1400E4FEC297EF1392A3EFC313FFD2970EBE65
:020C240008F0D6
:010C260022AB
:100C0000C29300C29700D29300120C14AF05120CCD
:040C100014C2932255
:100A9D00E4FDC29300C29700D29300120C14E4FF40
:100AAD00C297EDC313FD30A303430580D2970FBF4B
:100ABD0008EEC29300C29700D29700C2A300D2A342
:030ACD0000AF0572
:010AD0002203
:040BB600D2A07F0A40
:100BBA00000000000000000000000000000000AE7D
:060BCA00071FEE70EB2294
:0F0C5900D2A1120BB6C2A17F0A120BBAC2A022FF
:0C0C6800C2A1120BB6D2A17F0A020BBA87
:020AFF00AD0741
:100B0100E4FCC2A07F0A120BBAED30E704D2A18047
:100B110002C2A17F0A120BBAD2A0ED25E0FD7F0A25
:090B2100120BBA0CBC08DBC2A0E7
:010B2A0022A8
:100B9900E4FC120BB6ED25E0FD30A103430501C2CB
:0C0BA900A07F0A120BBA0CBC08E8AF05D4
:010BB500221D
:100C2700120BB6A2A1E433FDC2A07F0A120BBAAF22
:010C370005B7
:010C38002299
:100BE800C2A0EF24FF92A17F0A120BBA120BB6C261
:080BF800A0D2A17F0A020BBA92
:100B56008F088D09120C597F90120AFF120C27E597
:100B6600084440FF120AFF120C27AF09120AFF12AF
:050B76000C27020C68D1
:020A67008F08F6
:100A6900120C597F90120AFF120C27E5084440FF27
:100A7900120AFF120C27120C597F91120AFF120C4D
:100A890027120B998F09120C277F01120BE8120C00
:030A990068AF093A
:010A9C002237
:10000300EC4D6011E8497017ED33EC3304600DE4F7
:10001300FCFFFEFD22E933E8330470F80201B3125A
:10002300017E58046009E4CC24815006285009025B
:1000330001BD2840030201BAC0E0EB4A7044B98015
:1000430006D0E0FB0201A9EF4E701CBD8008EBFF58
:10005300EAFEE9FD80EBE98DF0A4FEE5F00200EC99
:10006300E9CDF9EAFEEBFFEF89F0A4FCE5F0CE89D8
:10007300F0A42EFFE435F0CD89F0A42DFEE435F095
:100083008067EF4E7005BD80D780C3EF8BF0A4ACC3
:10009300F0EE8BF0A42CFCE435F0F8EF8AF0A42CFE
:1000A300E5F038FCE433CB8DF0A42CFCE5F03BF811
:1000B300EE8AF0A42CFCE5F038F8E433CF89F0A401
:1000C3002CFCE5F038CF3400CE89F0A42FFFE5F007
:1000D3003EFEE433C98DF0A42EFEE5F039CD8AF05F
:1000E300A42FFFE5F03EFEE43DFD33D0E0FB5007D7
:1000F3000BBB000F0201BDEC2CFCEF33FFEE33FE14
:06010300ED33FD02019541
:1001090075F020800E75F010800575F0087D007E71
:10011900007F003392D530D50312033AEC334010F7
:10012900EF33FFEE33FEED33FDEC33FCD5F0ED227A
:0E013900E5F0247EA2D513CC92E7CDCEFF22B6
:10014700EDD2E7CD33EC3392D524814006E4FFFEB0
:10015700FDFC22FCE4CFCECDCC24E0501174FF800F
:10016700EDC3CC13CCCD13CDCE13CECF13CF0470AC
:07017700F030D5DE02033A6F
:10017E00E9D2E7C933E833F892D5EDD2E7CD33ECC7
:07018E0033FC5002B2D52240
:10019500EC30E7100FBF000C0EBE00080DBD0004CB
:1001A5000BEB6014A2D5EB13FCED92E7FD2274FF77
:1001B500FCFDFEFF22E480F8A2D574FF13FC7D80D0
:0301C500E480EFE4
:030000000206FFF6
:0C06FF00787FE4F6D8FD75813E020746C6
:1001C800BC000BBE0029EF8DF084FFADF022E4CC1B
:1001D800F875F008EF2FFFEE33FEEC33FCEE9DECE4
:1001E800984005FCEE9DFE0FD5F0E9E4CEFD22ED2A
:1001F800F8F5F0EE8420D21CFEADF075F008EF2F74
:10020800FFED33FD4007985006D5F0F222C398FD64
:050218000FD5F0EA2201
:10021D00E88FF0A4CC8BF0A42CFCE98EF0A42CFC80
:10022D008AF0EDA42CFCEA8EF0A4CDA8F08BF0A4FE
:10023D002DCC3825F0FDE98FF0A42CCD35F0FCEB5D
:10024D008EF0A4FEA9F0EB8FF0A4CFC5F02ECD3922
:0F025D00FEE43CFCEAA42DCE35F0FDE43CFC228F
:10026C0075F008758200EF2FFFEE33FECD33CDCC49
:10027C0033CCC58233C5829BED9AEC99E5829840CC
:10028C000CF582EE9BFEED9AFDEC99FC0FD5F0D6A9
:10029C00E4CEFBE4CDFAE4CCF9A88222B800C1B9D3
:1002AC000059BA002DEC8BF084CFCECDFCE5F0CB11
:1002BC00F97818EF2FFFEE33FEED33FDEC33FCEB4A
:1002CC0033FB10D703994004EB99FB0FD8E5E4F905
:1002DC00FA227818EF2FFFEE33FEED33FDEC33FCF2
:1002EC00C933C910D7059BE99A4007EC9BFCE99AE6
:1002FC00F90FD8E0E4C9FAE4CCFB2275F010EF2F2B
:10030C00FFEE33FEED33FDCC33CCC833C810D7072A
:10031C009BEC9AE899400AED9BFDEC9AFCE899F865
:0E032C000FD5F0DAE4CDFBE4CCFAE4C8F922F8
:0E033A00C3E49FFFE49EFEE49DFDE49CFC22D4
:10070B00020348E493A3F8E493A34003F68001F2B9
:10071B0008DFF48029E493A3F85407240CC8C333EF
:10072B00C4540F4420C8834004F456800146F6DFBE
:10073B00E4800B01020408102040809007E9E47E5E
:10074B00019360BCA3FF543F30E509541FFEE493B3
:10075B00A360010ECF54C025E060A840B8E493A37A
:10076B00FAE493A3F8E493A3C8C582C8CAC583CAA5
:10077B00F0A3C8C582C8CAC583CADFE9DEE780BE5D
:01083E0000B9
:00000001FF
