:100F0500C0F9A4B0999282F880908883C6A1868E94
:100F15004079243019120278001008034621060E84
:100EE000010F1E010E14040A0000001801091E0162
:100EF0000814C103C1020111FF0110FFC184C185A3
:040F0000C180C1816A
:100E5900E4FF120F457FF47E01120E827580FF7D3B
:100E6900FF7F01120F457FF47E01120E827580FF0C
:090E79007F02120F457FF47E0197
:0B0E8200EF1FAC0670011E4C70F62242
:0C0E1A007580FF7F06120E267580FF0F0A
:100E2600EF24FB601314601914601F24037023E57C
:100E3600A0541F4480F5A022E5A0541F44A0F5A0AD
:100E460022E5A0541F44C0F5A022E5A0541F44E0AB
:030E5600F5A022E2
:100F4500AE077F06120E26AF06A8077401088002B9
:0E0F5500C333D8FCF5807F07120E268D802254
:100D02007580FF7D8C120E597580FFE50975F00A1A
:100D12008475F00A84E5F0900F0593FD7F03120EAF
:100D22007B7580FFE50975F00A84E5F093FD7F0489
:100D3200120E7B7580FF7DFF7F05120E7B7580FF93
:100D4200E50875F00A8475F00A84E5F093FD7F06E4
:100D5200120E7B7580FFE50875F00A84E5F093FDBD
:100D62007F07120E7B120E1A7580FF7FF47E01023E
:020D72000E82EF
:100C7C007580FF900F11E493FD120E597580FF7F64
:100C8C0003120E7B7580FF7F04120E7B7580FF7F35
:100C9C0005120E7B7580FFE47B0AFAF9F8AF0DAEF6
:100CAC000CAD0BAC0A120A01E47B0AFAF9F8120A31
:100CBC000174052BF582740F3AF583E493FD7F06DE
:100CCC00120E7B7580FFE47B0AFAF9F8AF0DAE0CBF
:100CDC00AD0BAC0A120A0174052BF582740F3AF5B0
:100CEC0083E493FD7F07120E7B120E1A7580FF7F33
:060CFC00F47E01020E82ED
:0B1031007F04120E1FE4F580F5A022E2
:100D74007F007E007D007C00120EB97FCC120F63D1
:100D84007F44120F637FBC7E02120E82120EB97F63
:100D9400CC120F637FBE120F63120FB88F12120FA3
:100DA400B88F13120EB9AF13E4FCFDFE7808120AD3
:100DB400B2A804A905AA06AB07EB4512FFEAFEE9AF
:100DC400FDE8FCE4120906E4FBFA7980783D120898
:040DD40000020944CC
:100AC50020B026300323120E7E20B01D30B0FD204D
:100AD500020E30030BE509D39400400D150980097A
:100AE500E508D394004002150820B12630032312EF
:100AF5000E7E20B11D30B1FD20020E30030BE5093D
:100B0500C39463500D05098009E508C39463500239
:100B1500050820B218300315120E7E20B20F30B230
:100B2500FD200207300304D2028002C20220B3294D
:100B3500120E7E20B32330B3FD200309D203850FA7
:100B450009850E0822C203E509C3950840098509F0
:0A0B55000F85080ED20122C2012212
:100DD8002004055311FE800343110120050553111A
:100DE800FD80034311022000055311FB80034311CA
:100DF800042001055311F78003431108E51165101C
:100E0800600F851110AEA07F04120E268510808E0B
:010E1800A039
:010E190022B6
:100B5F00121031200305120C7C8003120D02120AB1
:100B6F00C5120D748F0D8E0C8D0B8C0AAF0FE4FC1C
:100B7F00FDFEAB0DAA0CA90BA80AD3120AA1400DBA
:100B8F007FCC120F25C204D205D200804EAF0FE4E6
:100B9F00FCFDFEAB0DAA0CA90BA80AD3120AA1509B
:100BAF001BAF0EE4FCFDFEA80AC3120AA1400D7F85
:100BBF0099120F25D204C205D200801FAF0EE4FC9C
:100BCF00FDFEAB0DAA0CA90BA80AC3120AA1500B6C
:100BDF007F66120F25D204D205C200120DD8020B68
:010BEF0062A3
:040F9E007F057E004D
:100FA200EF1FAA0670011E4A600BE4FDEDC3940C0C
:050FB20050EE0D80F778
:010FB7002217
:020F6300A907DC
:100F6500E4FBC294E9139294120F9ED294E9C31341
:0C0F7500F90BBB08ED7F057E00020FA207
:100FB800E4FBC294ECC313FCD29430940343048042
:090FC800120F9E0BBB08EBAF04F5
:010FD10022FD
:100EB900C206D2947F0C7E00120FA2C2947F507E8C
:100EC90000120FA2D2947F0A7E00120FA2A294925E
:060ED90006120F9EA206A6
:010EDF0022F0
:040FD200D2A07F0A20
:100FD600000000000000000000000000000000AE5D
:060FE600071FEE70EB2274
:0F101600D2A1120FD2C2A17F0A120FD6C2A022FE
:0C102500C2A1120FD2D2A17F0A020FD686
:020E8D00AD07AF
:100E8F00E4FCC2A07F0A120FD6ED30E704D2A18096
:100E9F0002C2A17F0A120FD6D2A0ED25E0FD7F0A74
:090EAF00120FD60CBC08DBC2A036
:010EB8002217
:100F8100E4FC120FD2ED25E0FD30A103430501C2BF
:0C0F9100A07F0A120FD60CBC08E8AF05C8
:010F9D002231
:10100400120FD2A2A1E433FDC2A07F0A120FD6AF01
:0110140005D6
:0110150022B8
:100FEC00C2A0EF24FF92A17F0A120FD6120FD2C219
:080FFC00A0D2A17F0A020FD66A
:100F25008F121210167F90120E8D1210047F401230
:100F35000E8D121004AF12120E8D12100402102520
:10080000EC4D6011E8497017ED33EC3304600DE4F2
:10081000FCFFFEFD22E933E8330470F80209B01250
:10082000097B58046009E4CC248150062850090251
:1008300009BA2840030209B7C0E0EB4A7044B98006
:1008400006D0E0FB0209A6EF4E701CBD8008EBFF4E
:10085000EAFEE9FD80EBE98DF0A4FEE5F00208E98F
:10086000E9CDF9EAFEEBFFEF89F0A4FCE5F0CE89D3
:10087000F0A42EFFE435F0CD89F0A42DFEE435F090
:100880008067EF4E7005BD80D780C3EF8BF0A4ACBE
:10089000F0EE8BF0A42CFCE435F0F8EF8AF0A42CF9
:1008A000E5F038FCE433CB8DF0A42CFCE5F03BF80C
:1008B000EE8AF0A42CFCE5F038F8E433CF89F0A4FC
:1008C0002CFCE5F038CF3400CE89F0A42FFFE5F002
:1008D0003EFEE433C98DF0A42EFEE5F039CD8AF05A
:1008E000A42FFFE5F03EFEE43DFD33D0E0FB5007D2
:1008F0000BBB000F0209BAEC2CFCEF33FFEE33FE0A
:06090000ED33FD02099237
:1009060075F020800E75F010800575F0087D007E6C
:10091600007F003392D530D503120A93EC33401092
:10092600EF33FFEE33FEED33FDEC33FCD5F0ED2275
:0E093600E5F0247EA2D513CC92E7CDCEFF22B1
:10094400EDD2E7CD33EC3392D524814006E4FFFEAB
:10095400FDFC22FCE4CFCECDCC24E0501174FF800A
:10096400EDC3CC13CCCD13CDCE13CECF13CF0470A7
:07097400F030D5DE020A930A
:10097B00E9D2E7C933E833F892D5EDD2E7CD33ECC2
:07098B0033FC5002B2D5223B
:10099200EC30E7100FBF000C0EBE00080DBD0004C6
:1009A2000BEB6014A2D5EB13FCED92E7FD2274FF72
:1009B200FCFDFEFF22E480F8A2D574FF13FC7D80CB
:0309C200E480EFDF
:03000000020BF000
:0C0BF000787FE4F6D8FD758120020C37F8
:1009C50075F008758200EF2FFFEE33FECD33CDCCE9
:1009D50033CCC58233C5829BED9AEC99E58298406C
:1009E5000CF582EE9BFEED9AFDEC99FC0FD5F0D649
:1009F500E4CEFBE4CDFAE4CCF9A88222B800C1B973
:100A05000059BA002DEC8BF084CFCECDFCE5F0CBB0
:100A1500F97818EF2FFFEE33FEED33FDEC33FCEBE9
:100A250033FB10D703994004EB99FB0FD8E5E4F9A4
:100A3500FA227818EF2FFFEE33FEED33FDEC33FC91
:100A4500C933C910D7059BE99A4007EC9BFCE99A85
:100A5500F90FD8E0E4C9FAE4CCFB2275F010EF2FCA
:100A6500FFEE33FEED33FDCC33CCC833C810D707CA
:100A75009BEC9AE899400AED9BFDEC9AFCE899F805
:0E0A85000FD5F0DAE4CDFBE4CCFAE4C8F92298
:0E0A9300C3E49FFFE49EFEE49DFDE49CFC2274
:100AA100EB9FF5F0EA9E42F0E99D42F0E89C45F0AB
:010AB1002222
:100AB200E8600FEFC333FFEE33FEED33FDEC33FCA2
:030AC200D8F12246
:100BFC00020B5FE493A3F8E493A34003F68001F2A5
:100C0C0008DFF48029E493A3F85407240CC8C333F9
:100C1C00C4540F4420C8834004F456800146F6DFC8
:100C2C00E4800B0102040810204080900EE0E47E6A
:100C3C00019360BCA3FF543F30E509541FFEE493BD
:100C4C00A360010ECF54C025E060A840B8E493A384
:100C5C00FAE493A3F8E493A3C8C582C8CAC583CAAF
:100C6C00F0A3C8C582C8CAC583CADFE9DEE780BE67
:010F040000EC
:00000001FF
