:1010D400C0F9A4B0999282F880908883C6A1868EC4
:1010E4004079243019120278001008034621060EB4
:10102B00020C0144020A012C0413000000000217F9
:10103B0000000119000109000110FF0112FF011A44
:10104B0001011B01010801010F00011103010E0039
:100EFF00E4FF1210F47FF47E01120F467580FF7D20
:100F0F00FF7F011210F47FF47E01120F467580FFF0
:100F1F007F021210F47FF47E01120F467580FF7F5F
:100F2F00031210F47FF47E01120F467580FF7F04C9
:070F3F001210F47FF47E01A3
:0B0F4600EF1FAC0670011E4C70F6227D
:0C0F51007580FF7F06120F5D7580FF0F9A
:100F5D00EF24FB601314601914601F24037023E544
:100F6D00A0541F4480F5A022E5A0541F44A0F5A075
:100F7D0022E5A0541F44C0F5A022E5A0541F44E073
:030F8D00F5A022AA
:0B119E007F04120F56E4F580F5A0223C
:10117300758901758C3C758AAFC2A9C28CD2AF2226
:03000B00020FF9E8
:100FF900C0E0C0D0758C3C758AAFC3E50D950BE593
:101009000C950A5004050F8003750F00E50FC39472
:1010190064400A750F00751A00C2A9C28CD0D0D0DD
:02102900E032B3
:1010F400AE077F06120F5DAF06A8077401088002D1
:0E110400C333D8FCF5807F07120F5D8D80226B
:100E07007580FF7DC1120EFF7580FFAE0CAF0D7CA4
:100E1700007D64120A0774E42FF58274103EF5838F
:100E2700E493FD7F05120F3F7580FFAE0CAF0D7C7D
:100E3700007D0A120A077C007D0A120A0774D42D66
:100E4700F58274103CF583E493FD7F06120F3F751E
:100E570080FFAE0CAF0D7C007D0A120A0774D42DFB
:100E6700F58274103CF583E493FD7F07120F3F1260
:0C0E77000F517580FF7FF47E01020F46D2
:100E83007580FF7D8C120EFF7580FFAE0AAF0B7C61
:100E9300007D64120A0774E42FF58274103EF58313
:100EA300E493FD7F05120F3F7580FFAE0AAF0B7C05
:100EB300007D0A120A077C007D0A120A0774D42DEA
:100EC300F58274103CF583E493FD7F06120F3F75A2
:100ED30080FFAE0AAF0B7C007D0A120A0774D42D83
:100EE300F58274103CF583E493FD7F07120F3F12E4
:0C0EF3000F517580FF7FF47E01020F4656
:100800007580FF7DC8E4FF120F3F7580FF7F407E3B
:10081000427D0F7C00AB16AA15A914A813C3120BB6
:100820002A402B7BA07A8679017800AF16AE15ADF1
:1008300014AC13120A98E47B0AFAF9F8120A9874B5
:10084000D42BF58274103AF583E493FD80027DFF8A
:100850007F011210F4120F427580FF7FA07E867D0B
:10086000017C00AB16AA15A914A813C3120B2A40C9
:100870002B7BA07A8679017800AF16AE15AD14AC4B
:1008800013120A98E47B0AFAF9F8120A9874D42B26
:10089000F58274103AF583E493FD80027DFF7F02B8
:1008A0001210F4120F427580FFE47F107E27FDFCCA
:1008B000AB16AA15A914A813C3120B2A402AE47B6D
:1008C000107A27F9F8AF16AE15AD14AC13120A98CA
:1008D000E47B0AFAF9F8120A9874D42BF5827410A2
:1008E0003AF583E493FD80027DFF7F031210F4123A
:1008F0000F427580FFE47FE87E03FDFCAB16AA156E
:10090000A914A813C3120B2A402AE47BE87A03F93E
:10091000F8AF16AE15AD14AC13120A98E47B0AFAC0
:10092000F9F8120A9874D42BF58274103AF583E41E
:1009300093FD80027DFF7F041210F4120F42758038
:10094000FFE47F64FEFDFCAB16AA15A914A813C32F
:10095000120B2A402BE47B64FAF9F8AF16AE15AD02
:1009600014AC13120A98E47B0AFAF9F8120A987484
:10097000D42BF58274103AF583E493FD7F0580044F
:100980007DFF7F061210F4120F427580FFE47F0A8C
:10099000FEFDFCAB16AA15A914A813C3120B2A401E
:1009A00029E47B0AFAF9F8AF16AE15AD14AC1312B0
:1009B0000A98E47B0AFAF9F8120A9874D42BF582A3
:1009C00074103AF583E493FD80027DFF7F061210D8
:1009D000F4120F427580FFE47B0AFAF9F8AF16AE05
:1009E00015AD14AC13120A9874D42BF58274103A16
:1009F000F583E493FD7F07120F3F120F517580FFBF
:070A00007FF47E01020F46A6
:100B6800D2C4D2C2C2B5D2B4E5196402703520B27B
:100B780032120F4220B22C30B2FDE4FFFEFDFCAB76
:100B880016AA15A914A813C3120B2A600DE4F516AA
:100B9800F515F514F513F5098009E509C394035013
:100BA80002050920B336120F4220B33030B3FDE4FA
:100BB800F5090519E519B40219AE0AAF0B7C007DD9
:100BC8000A120A07AD07E4FF1210B27F107E27123F
:100BD8000F46E519C394034003E4F519D2C4C2C211
:100BE800D2B5D2B4E5196401706020B22E120F425A
:100BF80020B22830B2FDD3E50B9400E50A940040FA
:100C08001174CE250BF50B74FF350AF50AE4F509C6
:100C18008009E509C394035002050920B32C120F7B
:100C28004220B32630B3FDC3E50B94F4E50A9401E2
:100C3800500F7432250BF50BE4350AF50AE4F50973
:0B0C480022E509C394035002050922B5
:100D7C00E509C3940350057508018003E4F508C325
:100D8C00E50D950BE50C950A4009C2A9C28C751AA4
:100D9C00018004D2A9D28CE5165401FFE4FEFDFCBF
:100DAC007B01FAF9F8C3120B2A7004F51B8003754A
:100DBC001B01E51A70055312FE8008E51AB40103F5
:100DCC00431201E51B70055312FD8008E51BB401AD
:100DDC0003431202E50870055312FB8008E508B4C2
:100DEC000103431204E5126510600F851210AEA0CA
:0A0DFC007F04120F5D8510808EA0A9
:010E060022C9
:100C530012119E121173E4FF120FC6EF75F00AA46E
:100C630085F00AF50BE5197005120E078012E519D8
:100C7300B40105120E838008E519B40203120800BB
:100C83007F03120F907517008F18AE177C017DF448
:100C9300120B3BE47BFFFAF9F8120A988E0C8F0DC6
:100CA300120B68120D7CD3E50D950BE50C950A40EC
:100CB30009E5117005751101F50ED3E50D950BE5E9
:100CC3000C950A5003E4F511E51164017097E50EE4
:100CD3007093E5162401F516E43515F515E435147E
:0D0CE300F514E43513F513750E01020C68CD
:04112F00D2A07F0AC1
:10113300000000000000000000000000000000AEFE
:06114300071FEE70EB2215
:0F118300D2A112112FC2A17F0A121133C2A022D2
:0C119200C2A112112FD2A17F0A0211335A
:02105C00AD07DE
:10105E00E4FCC2A07F0A121133ED30E704D2A18066
:10106E0002C2A17F0A121133D2A0ED25E0FD7F0A44
:09107E001211330CBC08DBC2A006
:011087002246
:10111200E4FC12112FED25E0FD30A103430501C2CD
:0C112200A07F0A1211330CBC08E8AF05D6
:01112E00229E
:1011610012112FA2A1E433FDC2A07F0A121133AFE5
:011171000578
:01117200225A
:10114900C2A0EF24FF92A17F0A12113312112FC2FC
:08115900A0D2A17F0A021133AC
:1010B2008F1E8D1F1211837FA012105C121161AF5F
:1010C2001E12105C121161AF1F12105C121161022C
:0210D200119279
:020FC6008F1E7C
:100FC8001211837FA012105C121161AF1E12105C07
:100FD8001211611211837FA112105C12116112119A
:100FE800128F1F1211617F01121149121192AF1F46
:010FF80022D6
:020F90008F1EB2
:100F92001211837F9012105C121161E51E4440FF12
:100FA20012105C1211611211837F9112105C1211E6
:100FB200611211128F1F1211617F01121149121158
:030FC20092AF1FCC
:010FC5002209
:101088008F1C8D1D1211837F9012105C121161E567
:101098001C4440FF12105C121161AF1D12105C124B
:0A10A80011617F011211490211923B
:03000000020CF0FF
:0C0CF000787FE4F6D8FD75811F020D37F7
:100A0700BC000BBE0029EF8DF084FFADF022E4CCD3
:100A1700F875F008EF2FFFEE33FEEC33FCEE9DEC9C
:100A2700984005FCEE9DFE0FD5F0E9E4CEFD22EDE2
:100A3700F8F5F0EE8420D21CFEADF075F008EF2F2C
:100A4700FFED33FD4007985006D5F0F222C398FD1D
:050A57000FD5F0EA22BA
:100A5C0075F008758200EF2FFFEE33FECD33CDCC51
:100A6C0033CCC58233C5829BED9AEC99E5829840D4
:100A7C000CF582EE9BFEED9AFDEC99FC0FD5F0D6B1
:100A8C00E4CEFBE4CDFAE4CCF9A88222B800C1B9DB
:100A9C000059BA002DEC8BF084CFCECDFCE5F0CB19
:100AAC00F97818EF2FFFEE33FEED33FDEC33FCEB52
:100ABC0033FB10D703994004EB99FB0FD8E5E4F90D
:100ACC00FA227818EF2FFFEE33FEED33FDEC33FCFA
:100ADC00C933C910D7059BE99A4007EC9BFCE99AEE
:100AEC00F90FD8E0E4C9FAE4CCFB2275F010EF2F33
:100AFC00FFEE33FEED33FDCC33CCC833C810D70733
:100B0C009BEC9AE899400AED9BFDEC9AFCE899F86D
:0E0B1C000FD5F0DAE4CDFBE4CCFAE4C8F92200
:100B2A00EB9FF5F0EA9E42F0E99D42F0E89C45F021
:010B3A002298
:100B3B00EC8EF0A4CCC5F0CCCDF8EFA4CEC5F02D47
:100B4B00FDE43CFCE8A42EC8C5F03DFDE43CFCEF05
:0D0B5B00A4FFE5F028FEE43DFDE43CFC2293
:100CFC00020C53E493A3F8E493A34003F68001F2AF
:100D0C0008DFF48029E493A3F85407240CC8C333F8
:100D1C00C4540F4420C8834004F456800146F6DFC7
:100D2C00E4800B010204081020408090102BE47E1C
:100D3C00019360BCA3FF543F30E509541FFEE493BC
:100D4C00A360010ECF54C025E060A840B8E493A383
:100D5C00FAE493A3F8E493A3C8C582C8CAC583CAAE
:100D6C00F0A3C8C582C8CAC583CADFE9DEE780BE66
:01105B000094
:00000001FF
